{
  "count": 3,
  "next": "https://safe-transaction-mainnet.safe.global/api/v1/safes/0xF72b6C739E7889b89C888403a960a59935564405/module-transactions/?limit=2&offset=2&safe=0xF72b6C739E7889b89C888403a960a59935564405",
  "previous": null,
  "results": [
    {
      "created": "2024-05-02T14:55:00Z",
      "executionDate": "2024-05-02T14:55:00Z",
      "blockNumber": 5822171,
      "isSuccessful": true,
      "transactionHash": "0xf118b097fdf3751fc7d7e41c2f1542d045939dc56e4c739c65ce5106faa7ceec",
      "safe": "0xF72b6C739E7889b89C888403a960a59935564405",
      "module": "0xa581c4A4DB7175302464fF3C06380BC3270b4037",
      "to": "0x38869bf66a61cF6bDB996A6aE40D5853Fd43B526",
      "value": "0",
      "data": "0x8d80ff0a00000000000000000000000000000000000000000000000000000000000000200000000000000000000000000000000000000000000000000000000000000264001c7d4b196cb0c7b01d743fbc6116a902379c723800000000000000000000000000000000000000000000000000000000000000000000000000000000000000000000000000000000000000000000000000000044a9059cbb000000000000000000000000f72b6c739e7889b89c888403a960a5993556440500000000000000000000000000000000000000000000000000000000000186a0001c7d4b196cb0c7b01d743fbc6116a902379c723800000000000000000000000000000000000000000000000000000000000000000000000000000000000000000000000000000000000000000000000000000044a9059cbb000000000000000000000000f72b6c739e7889b89c888403a960a5993556440500000000000000000000000000000000000000000000000000000000000186a0001c7d4b196cb0c7b01d743fbc6116a902379c723800000000000000000000000000000000000000000000000000000000000000000000000000000000000000000000000000000000000000000000000000000044a9059cbb000000000000000000000000f72b6c739e7889b89c888403a960a5993556440500000000000000000000000000000000000000000000000000000000000186a0001c7d4b196cb0c7b01d743fbc6116a902379c723800000000000000000000000000000000000000000000000000000000000000000000000000000000000000000000000000000000000000000000000000000044a9059cbb000000000000000000000000f72b6c739e7889b89c888403a960a5993556440500000000000000000000000000000000000000000000000000000000000186a000000000000000000000000000000000000000000000000000000000",
      "operation": 1,
      "dataDecoded": {
        "method": "multiSend",
        "parameters": [
          {
            "name": "transactions",
            "type": "bytes",
            "value": "0x001c7d4b196cb0c7b01d743fbc6116a902379c723800000000000000000000000000000000000000000000000000000000000000000000000000000000000000000000000000000000000000000000000000000044a9059cbb000000000000000000000000f72b6c739e7889b89c888403a960a5993556440500000000000000000000000000000000000000000000000000000000000186a0001c7d4b196cb0c7b01d743fbc6116a902379c723800000000000000000000000000000000000000000000000000000000000000000000000000000000000000000000000000000000000000000000000000000044a9059cbb000000000000000000000000f72b6c739e7889b89c888403a960a5993556440500000000000000000000000000000000000000000000000000000000000186a0001c7d4b196cb0c7b01d743fbc6116a902379c723800000000000000000000000000000000000000000000000000000000000000000000000000000000000000000000000000000000000000000000000000000044a9059cbb000000000000000000000000f72b6c739e7889b89c888403a960a5993556440500000000000000000000000000000000000000000000000000000000000186a0001c7d4b196cb0c7b01d743fbc6116a902379c723800000000000000000000000000000000000000000000000000000000000000000000000000000000000000000000000000000000000000000000000000000044a9059cbb000000000000000000000000f72b6c739e7889b89c888403a960a5993556440500000000000000000000000000000000000000000000000000000000000186a0",
            "valueDecoded": [
              {
                "operation": 0,
                "to": "0x1c7D4B196Cb0C7B01d743Fbc6116a902379C7238",
                "value": "0",
                "data": "0xa9059cbb000000000000000000000000f72b6c739e7889b89c888403a960a5993556440500000000000000000000000000000000000000000000000000000000000186a0",
                "dataDecoded": {
                  "method": "transfer",
                  "parameters": [
                    {
                      "name": "to",
                      "type": "address",
                      "value": "0xF72b6C739E7889b89C888403a960a59935564405"
                    },
                    {
                      "name": "value",
                      "type": "uint256",
                      "value": "100000"
                    }
                  ]
                }
              },
              {
                "operation": 0,
                "to": "0x1c7D4B196Cb0C7B01d743Fbc6116a902379C7238",
                "value": "0",
                "data": "0xa9059cbb000000000000000000000000f72b6c739e7889b89c888403a960a5993556440500000000000000000000000000000000000000000000000000000000000186a0",
                "dataDecoded": {
                  "method": "transfer",
                  "parameters": [
                    {
                      "name": "to",
                      "type": "address",
                      "value": "0xF72b6C739E7889b89C888403a960a59935564405"
                    },
                    {
                      "name": "value",
                      "type": "uint256",
                      "value": "100000"
                    }
                  ]
                }
              },
              {
                "operation": 0,
                "to": "0x1c7D4B196Cb0C7B01d743Fbc6116a902379C7238",
                "value": "0",
                "data": "0xa9059cbb000000000000000000000000f72b6c739e7889b89c888403a960a5993556440500000000000000000000000000000000000000000000000000000000000186a0",
                "dataDecoded": {
                  "method": "transfer",
                  "parameters": [
                    {
                      "name": "to",
                      "type": "address",
                      "value": "0xF72b6C739E7889b89C888403a960a59935564405"
                    },
                    {
                      "name": "value",
                      "type": "uint256",
                      "value": "100000"
                    }
                  ]
                }
              },
              {
                "operation": 0,
                "to": "0x1c7D4B196Cb0C7B01d743Fbc6116a902379C7238",
                "value": "0",
                "data": "0xa9059cbb000000000000000000000000f72b6c739e7889b89c888403a960a5993556440500000000000000000000000000000000000000000000000000000000000186a0",
                "dataDecoded": {
                  "method": "transfer",
                  "parameters": [
                    {
                      "name": "to",
                      "type": "address",
                      "value": "0xF72b6C739E7889b89C888403a960a59935564405"
                    },
                    {
                      "name": "value",
                      "type": "uint256",
                      "value": "100000"
                    }
                  ]
                }
              }
            ]
          }
        ]
      },
      "moduleTransactionId": "if118b097fdf3751fc7d7e41c2f1542d045939dc56e4c739c65ce5106faa7ceec2,0,0,0,0,0"
    },
    {
      "created": "2024-05-02T14:51:24Z",
      "executionDate": "2024-05-02T14:51:24Z",
      "blockNumber": 5822155,
      "isSuccessful": true,
      "transactionHash": "0xc9e5778b5ea63d919acb71d3afbef00d1e9bdb6cc415330e4c2c7677d97b915f",
      "safe": "0xF72b6C739E7889b89C888403a960a59935564405",
      "module": "0xa581c4A4DB7175302464fF3C06380BC3270b4037",
      "to": "0x38869bf66a61cF6bDB996A6aE40D5853Fd43B526",
      "value": "0",
      "data": "0x8d80ff0a00000000000000000000000000000000000000000000000000000000000000200000000000000000000000000000000000000000000000000000000000000264001c7d4b196cb0c7b01d743fbc6116a902379c723800000000000000000000000000000000000000000000000000000000000000000000000000000000000000000000000000000000000000000000000000000044a9059cbb000000000000000000000000f72b6c739e7889b89c888403a960a5993556440500000000000000000000000000000000000000000000000000000000000186a0001c7d4b196cb0c7b01d743fbc6116a902379c723800000000000000000000000000000000000000000000000000000000000000000000000000000000000000000000000000000000000000000000000000000044a9059cbb000000000000000000000000f72b6c739e7889b89c888403a960a5993556440500000000000000000000000000000000000000000000000000000000000186a0001c7d4b196cb0c7b01d743fbc6116a902379c723800000000000000000000000000000000000000000000000000000000000000000000000000000000000000000000000000000000000000000000000000000044a9059cbb000000000000000000000000f72b6c739e7889b89c888403a960a5993556440500000000000000000000000000000000000000000000000000000000000186a0001c7d4b196cb0c7b01d743fbc6116a902379c723800000000000000000000000000000000000000000000000000000000000000000000000000000000000000000000000000000000000000000000000000000044a9059cbb000000000000000000000000f72b6c739e7889b89c888403a960a5993556440500000000000000000000000000000000000000000000000000000000000186a000000000000000000000000000000000000000000000000000000000",
      "operation": 1,
      "dataDecoded": {
        "method": "multiSend",
        "parameters": [
          {
            "name": "transactions",
            "type": "bytes",
            "value": "0x001c7d4b196cb0c7b01d743fbc6116a902379c723800000000000000000000000000000000000000000000000000000000000000000000000000000000000000000000000000000000000000000000000000000044a9059cbb000000000000000000000000f72b6c739e7889b89c888403a960a5993556440500000000000000000000000000000000000000000000000000000000000186a0001c7d4b196cb0c7b01d743fbc6116a902379c723800000000000000000000000000000000000000000000000000000000000000000000000000000000000000000000000000000000000000000000000000000044a9059cbb000000000000000000000000f72b6c739e7889b89c888403a960a5993556440500000000000000000000000000000000000000000000000000000000000186a0001c7d4b196cb0c7b01d743fbc6116a902379c723800000000000000000000000000000000000000000000000000000000000000000000000000000000000000000000000000000000000000000000000000000044a9059cbb000000000000000000000000f72b6c739e7889b89c888403a960a5993556440500000000000000000000000000000000000000000000000000000000000186a0001c7d4b196cb0c7b01d743fbc6116a902379c723800000000000000000000000000000000000000000000000000000000000000000000000000000000000000000000000000000000000000000000000000000044a9059cbb000000000000000000000000f72b6c739e7889b89c888403a960a5993556440500000000000000000000000000000000000000000000000000000000000186a0",
            "valueDecoded": [
              {
                "operation": 0,
                "to": "0x1c7D4B196Cb0C7B01d743Fbc6116a902379C7238",
                "value": "0",
                "data": "0xa9059cbb000000000000000000000000f72b6c739e7889b89c888403a960a5993556440500000000000000000000000000000000000000000000000000000000000186a0",
                "dataDecoded": {
                  "method": "transfer",
                  "parameters": [
                    {
                      "name": "to",
                      "type": "address",
                      "value": "0xF72b6C739E7889b89C888403a960a59935564405"
                    },
                    {
                      "name": "value",
                      "type": "uint256",
                      "value": "100000"
                    }
                  ]
                }
              },
              {
                "operation": 0,
                "to": "0x1c7D4B196Cb0C7B01d743Fbc6116a902379C7238",
                "value": "0",
                "data": "0xa9059cbb000000000000000000000000f72b6c739e7889b89c888403a960a5993556440500000000000000000000000000000000000000000000000000000000000186a0",
                "dataDecoded": {
                  "method": "transfer",
                  "parameters": [
                    {
                      "name": "to",
                      "type": "address",
                      "value": "0xF72b6C739E7889b89C888403a960a59935564405"
                    },
                    {
                      "name": "value",
                      "type": "uint256",
                      "value": "100000"
                    }
                  ]
                }
              },
              {
                "operation": 0,
                "to": "0x1c7D4B196Cb0C7B01d743Fbc6116a902379C7238",
                "value": "0",
                "data": "0xa9059cbb000000000000000000000000f72b6c739e7889b89c888403a960a5993556440500000000000000000000000000000000000000000000000000000000000186a0",
                "dataDecoded": {
                  "method": "transfer",
                  "parameters": [
                    {
                      "name": "to",
                      "type": "address",
                      "value": "0xF72b6C739E7889b89C888403a960a59935564405"
                    },
                    {
                      "name": "value",
                      "type": "uint256",
                      "value": "100000"
                    }
                  ]
                }
              },
              {
                "operation": 0,
                "to": "0x1c7D4B196Cb0C7B01d743Fbc6116a902379C7238",
                "value": "0",
                "data": "0xa9059cbb000000000000000000000000f72b6c739e7889b89c888403a960a5993556440500000000000000000000000000000000000000000000000000000000000186a0",
                "dataDecoded": {
                  "method": "transfer",
                  "parameters": [
                    {
                      "name": "to",
                      "type": "address",
                      "value": "0xF72b6C739E7889b89C888403a960a59935564405"
                    },
                    {
                      "name": "value",
                      "type": "uint256",
                      "value": "100000"
                    }
                  ]
                }
              }
            ]
          }
        ]
      },
      "moduleTransactionId": "ic9e5778b5ea63d919acb71d3afbef00d1e9bdb6cc415330e4c2c7677d97b915f2,0,0,0,0,0"
    }
  ]
}