{
  "created": "2024-06-25T11:18:48Z",
  "creator": "0xa6d3DEBAAB2B8093e69109f23A75501F864F74e2",
  "transactionHash": "0x6404e0298423c092cc1ce486f3f72172a1c0f2f28a9b29f69e605ea825360ac5",
  "factoryAddress": "0xC22834581EbC8527d974F8a1c97E1bEA4EF910BC",
  "masterCopy": "0xfb1bffC9d739B8D520DaF37dF666da4C687191EA",
  "setupData": "0xb63e800d0000000000000000000000000000000000000000000000000000000000000100000000000000000000000000000000000000000000000000000000000000000200000000000000000000000000000000000000000000000000000000000000000000000000000000000000000000000000000000000000000000000000000160000000000000000000000000017062a1de2fe6b99be3d9d37841fed19f5738040000000000000000000000000000000000000000000000000000000000000000000000000000000000000000000000000000000000000000000000000000000000000000000000000000000000000000000000000000000000000000000000000000000000000000000000000000000000000000000000000000000000000002000000000000000000000000a6d3debaab2b8093e69109f23a75501f864f74e20000000000000000000000003a16e3090e32dded2250e862b9d5610bef13e93d0000000000000000000000000000000000000000000000000000000000000000",
  "dataDecoded": {
    "method": "setup",
    "parameters": [
      {
        "name": "_owners",
        "type": "address[]",
        "value": [
          "0xa6d3DEBAAB2B8093e69109f23A75501F864F74e2",
          "0x3A16E3090e32DDeD2250E862B9d5610BEF13e93d"
        ]
      },
      {
        "name": "_threshold",
        "type": "uint256",
        "value": "2"
      },
      {
        "name": "to",
        "type": "address",
        "value": "0x0000000000000000000000000000000000000000"
      },
      {
        "name": "data",
        "type": "bytes",
        "value": "0x"
      },
      {
        "name": "fallbackHandler",
        "type": "address",
        "value": "0x017062a1dE2FE6b99BE3d9d37841FeD19F573804"
      },
      {
        "name": "paymentToken",
        "type": "address",
        "value": "0x0000000000000000000000000000000000000000"
      },
      {
        "name": "payment",
        "type": "uint256",
        "value": "0"
      },
      {
        "name": "paymentReceiver",
        "type": "address",
        "value": "0x0000000000000000000000000000000000000000"
      }
    ]
  },
  "userOperation": null
}
