{
  "method": "multiSend",
  "parameters": [
    {
      "name": "transactions",
      "type": "bytes",
      "value": "0x006b175474e89094c44da98b954eedeac495271d0f00000000000000000000000000000000000000000000000000000000000000000000000000000000000000000000000000000000000000000000000000000044095ea7b30000000000000000000000001111111254fb6c44bac0bed2854e76f90643097d0000000000000000000000000000000000000000000c685fa11e01ec80000000001111111254fb6c44bac0bed2854e76f90643097d000000000000000000000000000000000000000000000000000000000000000000000000000000000000000000000000000000000000000000000000000004087c025200000000000000000000000000f2f400c138f9fb900576263af0bc7fcde2b1b8a8000000000000000000000000000000000000000000000000000000000000006000000000000000000000000000000000000000000000000000000000000001800000000000000000000000006b175474e89094c44da98b954eedeac495271d0f000000000000000000000000a0b86991c6218b36c1d19d4a2e9eb0ce3606eb48000000000000000000000000f2f400c138f9fb900576263af0bc7fcde2b1b8a80000000000000000000000004f3a120e72c76c22ae802d129f599bfdbc31cb810000000000000000000000000000000000000000000c685fa11e01ec8000000000000000000000000000000000000000000000000000000000000da41c43c100000000000000000000000000000000000000000000000000000000000000000400000000000000000000000000000000000000000000000000000000000001000000000000000000000000000000000000000000000000000000000000000000000000000000000000000000000000000000000000000000000000000000026000000000000000000000000000000000000000000000000000000000000000400000000000000000000000000000000000000000000000000000000000000002000000000000000000000000000000000000000000000000000000000000004000000000000000000000000000000000000000000000000000000000000001408000000000000000000000000000000000000000000000000000000000000000000000000000000000000000000000000000000000000000000000000000000000000000000000000000000000000000000000000000000000000000000000600000000000000000000000000000000000000000000000000000000000000064eb5625d90000000000000000000000006b175474e89094c44da98b954eedeac495271d0f00000000000000000000000089b78cfa322f6c5de0abceecab66aee45393cc5a0000000000000000000000000000000000000000000c685fa11e01ec800000000000000000000000000000000000000000000000000000000000000080000000000000000000000089b78cfa322f6c5de0abceecab66aee45393cc5a0000000000000000000000000000000000000000000000000000000000000000000000000000000000000000000000000000000000000000000000000000006000000000000000000000000000000000000000000000000000000000000000448d7ef9bb0000000000000000000000001111111254fb6c44bac0bed2854e76f90643097d00000000000000000000000000000000000000000000000000000da475abf0000000000000000000000000000000000000000000000000000000000065575cda",
      "valueDecoded": [
        {
          "operation": 0,
          "to": "0x6B175474E89094C44Da98b954EedeAC495271d0F",
          "value": "0",
          "data": "0x095ea7b30000000000000000000000001111111254fb6c44bac0bed2854e76f90643097d0000000000000000000000000000000000000000000c685fa11e01ec80000000",
          "dataDecoded": {
            "method": "approve",
            "parameters": [
              {
                "name": "spender",
                "type": "address",
                "value": "0x1111111254fb6c44bAC0beD2854e76F90643097d"
              },
              {
                "name": "value",
                "type": "uint256",
                "value": "15000000000000000285212672"
              }
            ]
          }
        },
        {
          "operation": 0,
          "to": "0x1111111254fb6c44bAC0beD2854e76F90643097d",
          "value": "0",
          "data": "0x7c025200000000000000000000000000f2f400c138f9fb900576263af0bc7fcde2b1b8a8000000000000000000000000000000000000000000000000000000000000006000000000000000000000000000000000000000000000000000000000000001800000000000000000000000006b175474e89094c44da98b954eedeac495271d0f000000000000000000000000a0b86991c6218b36c1d19d4a2e9eb0ce3606eb48000000000000000000000000f2f400c138f9fb900576263af0bc7fcde2b1b8a80000000000000000000000004f3a120e72c76c22ae802d129f599bfdbc31cb810000000000000000000000000000000000000000000c685fa11e01ec8000000000000000000000000000000000000000000000000000000000000da41c43c100000000000000000000000000000000000000000000000000000000000000000400000000000000000000000000000000000000000000000000000000000001000000000000000000000000000000000000000000000000000000000000000000000000000000000000000000000000000000000000000000000000000000026000000000000000000000000000000000000000000000000000000000000000400000000000000000000000000000000000000000000000000000000000000002000000000000000000000000000000000000000000000000000000000000004000000000000000000000000000000000000000000000000000000000000001408000000000000000000000000000000000000000000000000000000000000000000000000000000000000000000000000000000000000000000000000000000000000000000000000000000000000000000000000000000000000000000000600000000000000000000000000000000000000000000000000000000000000064eb5625d90000000000000000000000006b175474e89094c44da98b954eedeac495271d0f00000000000000000000000089b78cfa322f6c5de0abceecab66aee45393cc5a0000000000000000000000000000000000000000000c685fa11e01ec800000000000000000000000000000000000000000000000000000000000000080000000000000000000000089b78cfa322f6c5de0abceecab66aee45393cc5a0000000000000000000000000000000000000000000000000000000000000000000000000000000000000000000000000000000000000000000000000000006000000000000000000000000000000000000000000000000000000000000000448d7ef9bb0000000000000000000000001111111254fb6c44bac0bed2854e76f90643097d00000000000000000000000000000000000000000000000000000da475abf0000000000000000000000000000000000000000000000000000000000065575cda",
          "dataDecoded": null
        }
      ]
    }
  ]
}
