{
  "created": "2019-11-27T15:01:45Z",
  "creator": "0xA1b02d8c67b0FDCF4E379855868DeB470E169cfB",
  "transactionHash": "0x9c65d416867d9e13732fee8b85dd44c4d774b9bad31b3cd44e78eeefc33ce97f",
  "factoryAddress": "0x12302fE9c02ff50939BaAaaf415fc226C078613C",
  "masterCopy": "0xb6029EA3B2c51D09a50B53CA8012FeEB05bDa35A",
  "setupData": "0xa97ab18a00000000000000000000000000000000000000000000000000000000000000e00000000000000000000000000000000000000000000000000000000000000001000000000000000000000000000000000000000000000000000000000000000000000000000000000000000000000000000000000000000000000000000001200000000000000000000000000000000000000000000000000000000000000000000000000000000000000000000000000000000000000000000000000000000000000000000000000000000000000000000000000000000000000000000000000000000000000000000000000000000000000000000000000000000000000001000000000000000000000000a1b02d8c67b0fdcf4e379855868deb470e169cfb0000000000000000000000000000000000000000000000000000000000000000",
  "dataDecoded": {
    "method": "setup",
    "parameters": [
      {
        "name": "_owners",
        "type": "address[]",
        "value": [
          "0xA1b02d8c67b0FDCF4E379855868DeB470E169cfB"
        ]
      },
      {
        "name": "_threshold",
        "type": "uint256",
        "value": "1"
      },
      {
        "name": "to",
        "type": "address",
        "value": "0x0000000000000000000000000000000000000000"
      },
      {
        "name": "data",
        "type": "bytes",
        "value": "0x"
      },
      {
        "name": "paymentToken",
        "type": "address",
        "value": "0x0000000000000000000000000000000000000000"
      },
      {
        "name": "payment",
        "type": "uint256",
        "value": "0"
      },
      {
        "name": "paymentReceiver",
        "type": "address",
        "value": "0x0000000000000000000000000000000000000000"
      }
    ]
  },
  "userOperation": null
}