{
  "created": "2024-05-02T09:21:48Z",
  "creator": "0x7fc98430eAEdbb6070B35B39D798725049088348",
  "transactionHash": "0xb385f65ad802423028550f20a94f2433671a16874e2544827bbf146bbb08d96c",
  "factoryAddress": "0x4e1DCf7AD4e460CfD30791CCC4F9c8a4f820ec67",
  "masterCopy": "0x29fcB43b46531BcA003ddC8FCB67FFE91900C762",
  "setupData": "0xb63e800d000000000000000000000000000000000000000000000000000000000000010000000000000000000000000000000000000000000000000000000000000000010000000000000000000000008ecd4ec46d4d2a6b64fe960b3d64e8b94b2234eb0000000000000000000000000000000000000000000000000000000000000140000000000000000000000000a581c4a4db7175302464ff3c06380bc3270b40370000000000000000000000000000000000000000000000000000000000000000000000000000000000000000000000000000000000000000000000000000000000000000000000000000000000000000000000000000000000000000000000000000000000000000000000000000000000000000000000000000000000000001000000000000000000000000c6b82ba149cfa113f8f48d5e3b1f78e933e16dfd00000000000000000000000000000000000000000000000000000000000000648d0dc49f00000000000000000000000000000000000000000000000000000000000000200000000000000000000000000000000000000000000000000000000000000001000000000000000000000000a581c4a4db7175302464ff3c06380bc3270b403700000000000000000000000000000000000000000000000000000000",
  "dataDecoded": {
    "method": "setup",
    "parameters": [
      {
        "name": "_owners",
        "type": "address[]",
        "value": [
          "0xc6b82bA149CFA113f8f48d5E3b1F78e933e16DfD"
        ]
      },
      {
        "name": "_threshold",
        "type": "uint256",
        "value": "1"
      },
      {
        "name": "to",
        "type": "address",
        "value": "0x8EcD4ec46D4D2a6B64fE960B3D64e8B94B2234eb"
      },
      {
        "name": "data",
        "type": "bytes",
        "value": "0x8d0dc49f00000000000000000000000000000000000000000000000000000000000000200000000000000000000000000000000000000000000000000000000000000001000000000000000000000000a581c4a4db7175302464ff3c06380bc3270b4037"
      },
      {
        "name": "fallbackHandler",
        "type": "address",
        "value": "0xa581c4A4DB7175302464fF3C06380BC3270b4037"
      },
      {
        "name": "paymentToken",
        "type": "address",
        "value": "0x0000000000000000000000000000000000000000"
      },
      {
        "name": "payment",
        "type": "uint256",
        "value": "0"
      },
      {
        "name": "paymentReceiver",
        "type": "address",
        "value": "0x0000000000000000000000000000000000000000"
      }
    ]
  },
  "userOperation": {
    "ethereumTxHash": "0xb385f65ad802423028550f20a94f2433671a16874e2544827bbf146bbb08d96c",
    "sender": "0xF72b6C739E7889b89C888403a960a59935564405",
    "userOperationHash": "0xd9e377ffd06eb4babfc3b52d70894d94ff57f51c8803b70f178ef74e50b38905",
    "nonce": 0,
    "initCode": "0x4e1dcf7ad4e460cfd30791ccc4f9c8a4f820ec671688f0b900000000000000000000000029fcb43b46531bca003ddc8fcb67ffe91900c7620000000000000000000000000000000000000000000000000000000000000060000000000000000000000000000000000000000000000000000000000000a96c00000000000000000000000000000000000000000000000000000000000001e4b63e800d000000000000000000000000000000000000000000000000000000000000010000000000000000000000000000000000000000000000000000000000000000010000000000000000000000008ecd4ec46d4d2a6b64fe960b3d64e8b94b2234eb0000000000000000000000000000000000000000000000000000000000000140000000000000000000000000a581c4a4db7175302464ff3c06380bc3270b40370000000000000000000000000000000000000000000000000000000000000000000000000000000000000000000000000000000000000000000000000000000000000000000000000000000000000000000000000000000000000000000000000000000000000000000000000000000000000000000000000000000000000001000000000000000000000000c6b82ba149cfa113f8f48d5e3b1f78e933e16dfd00000000000000000000000000000000000000000000000000000000000000648d0dc49f00000000000000000000000000000000000000000000000000000000000000200000000000000000000000000000000000000000000000000000000000000001000000000000000000000000a581c4a4db7175302464ff3c06380bc3270b40370000000000000000000000000000000000000000000000000000000000000000000000000000000000000000000000000000000000000000",
    "callData": "0x7bb3742800000000000000000000000038869bf66a61cf6bdb996a6ae40d5853fd43b52600000000000000000000000000000000000000000000000000000000000000000000000000000000000000000000000000000000000000000000000000000080000000000000000000000000000000000000000000000000000000000000000100000000000000000000000000000000000000000000000000000000000002c48d80ff0a00000000000000000000000000000000000000000000000000000000000000200000000000000000000000000000000000000000000000000000000000000264001c7d4b196cb0c7b01d743fbc6116a902379c723800000000000000000000000000000000000000000000000000000000000000000000000000000000000000000000000000000000000000000000000000000044a9059cbb000000000000000000000000f72b6c739e7889b89c888403a960a5993556440500000000000000000000000000000000000000000000000000000000000186a0001c7d4b196cb0c7b01d743fbc6116a902379c723800000000000000000000000000000000000000000000000000000000000000000000000000000000000000000000000000000000000000000000000000000044a9059cbb000000000000000000000000f72b6c739e7889b89c888403a960a5993556440500000000000000000000000000000000000000000000000000000000000186a0001c7d4b196cb0c7b01d743fbc6116a902379c723800000000000000000000000000000000000000000000000000000000000000000000000000000000000000000000000000000000000000000000000000000044a9059cbb000000000000000000000000f72b6c739e7889b89c888403a960a5993556440500000000000000000000000000000000000000000000000000000000000186a0001c7d4b196cb0c7b01d743fbc6116a902379c723800000000000000000000000000000000000000000000000000000000000000000000000000000000000000000000000000000000000000000000000000000044a9059cbb000000000000000000000000f72b6c739e7889b89c888403a960a5993556440500000000000000000000000000000000000000000000000000000000000186a00000000000000000000000000000000000000000000000000000000000000000000000000000000000000000000000000000000000000000",
    "callGasLimit": 140240,
    "verificationGasLimit": 542895,
    "preVerificationGas": 66374,
    "maxFeePerGas": 16535642691,
    "maxPriorityFeePerGas": 1380000000,
    "paymaster": "0xDFF7FA1077Bce740a6a212b3995990682c0Ba66d",
    "paymasterData": "0xdff7fa1077bce740a6a212b3995990682c0ba66d",
    "signature": "0x000065d7cd940000668ee894c0dd9fd0ef8958eb8ee8245efdc9e1074380c9682e0bb2c0958dfc2aabf4d34e425b00f872ac761bb2cfdf43968fc76d6a892a65b8b270d1ad289fb151e65d5a1b",
    "entryPoint": "0x5FF137D4b0FDCD49DcA30c7CF57E578a026d2789",
    "safeOperation": {
      "created": "2024-05-07T14:23:27.988241Z",
      "modified": "2024-05-07T14:23:27.988241Z",
      "safeOperationHash": "0xf531b1c7481e14be90e721d422325a597b9e0134ca0aebdc8134fab2e16fb343",
      "validAfter": "2024-02-22T22:41:24Z",
      "validUntil": "2024-07-10T20:01:24Z",
      "moduleAddress": "0xa581c4A4DB7175302464fF3C06380BC3270b4037",
      "confirmations": [
        {
          "created": "2024-05-07T14:23:28.003273Z",
          "modified": "2024-05-07T14:23:28.003273Z",
          "owner": "0xc6b82bA149CFA113f8f48d5E3b1F78e933e16DfD",
          "signature": "0xc0dd9fd0ef8958eb8ee8245efdc9e1074380c9682e0bb2c0958dfc2aabf4d34e425b00f872ac761bb2cfdf43968fc76d6a892a65b8b270d1ad289fb151e65d5a1b",
          "signatureType": "EOA"
        }
      ],
      "preparedSignature": "0xc0dd9fd0ef8958eb8ee8245efdc9e1074380c9682e0bb2c0958dfc2aabf4d34e425b00f872ac761bb2cfdf43968fc76d6a892a65b8b270d1ad289fb151e65d5a1b"
    }
  }
}