import Path from './Path'
import Hr from '../Hr'
import SampleRequestHeader from './SampleRequestHeader'
import Parameters from './Parameter'
import NetworkSwitcher, { NetworkNotice } from './Network'
import Responses from './Response'
import Feedback from '../Feedback'
import Grid from '@mui/material/Grid'
import Box from '@mui/material/Box'
import NextLink from 'next/link'
import Link from '@mui/material/Link'

# Safe Transaction Service API Reference

The Safe Transaction Service API Reference is a collection of endpoints that allow to keep track of Safe transactions.

This service is available on [multiple networks](../../core-api/transaction-service-supported-networks), at different endpoints.

<NetworkSwitcher />

<Grid my={8} />

## Contracts

<Grid my={6} />

### List Contracts

<Grid container justifyContent='space-between'>
  <Grid item xs={12} md={5.6}>

    

    

    

    <Parameters parameters={[{"name":"ordering","in":"query","description":"Which field to use when ordering the results.","required":false,"type":"string"},{"name":"limit","in":"query","description":"Number of results to return per page.","required":false,"type":"integer"},{"name":"offset","in":"query","description":"The initial index from which to return the results.","required":false,"type":"integer"}]} />
    <Responses responses={[{"code":"200","schema":{"required":["count","results"],"type":"object","properties":{"count":{"type":"integer"},"next":{"type":"string","format":"uri","x-nullable":true},"previous":{"type":"string","format":"uri","x-nullable":true},"results":{"type":"array","items":{"refName":"Contract","required":["address","name","displayName","contractAbi","trustedForDelegateCall"],"type":"object","properties":{"address":{"title":"Address","type":"string"},"name":{"title":"Name","type":"string","minLength":1},"displayName":{"title":"Display name","type":"string","minLength":1},"logoUri":{"title":"Logo uri","type":"string","readOnly":true,"format":"uri"},"contractAbi":{"refName":"ContractAbi","required":["abi","description","relevance"],"type":"object","properties":{"abi":{"type":"array","items":{"type":"object","additionalProperties":{"type":"string","x-nullable":true}}},"description":{"title":"Description","type":"string","minLength":1},"relevance":{"title":"Relevance","type":"integer"}}},"trustedForDelegateCall":{"title":"Trusted for delegate call","type":"boolean"}}}}}},"description":""}]} />
    <Feedback asPath={"/api-reference#List-Contracts"} label='Did this API route run successfully?' small />
  </Grid>
  <Grid item xs={12} md={5.6}>
    <Path path="/v1/contracts/" method="get" />

    <SampleRequestHeader method="get" pathWithParams="/v1/contracts/" />

    <CH.Section>
      <CH.Code>
        
```bash 
curl -X GET https://safe-transaction-mainnet.safe.global/api/v1/contracts/ \
    -H "Accept: application/json" \
    -H "content-type: application/json" \
    
```
      </CH.Code>
    </CH.Section>
    <NetworkNotice />

    #### Sample Response

```json
{
  "count": 143350,
  "next": "https://safe-transaction-mainnet.safe.global/api/v1/contracts/?limit=2&offset=2",
  "previous": null,
  "results": [
    {
      "address": "0x0000000000000000000000000000000000000000",
      "name": "",
      "displayName": "",
      "logoUri": null,
      "contractAbi": null,
      "trustedForDelegateCall": false
    },
    {
      "address": "0x0000000000000000000000000000000000000002",
      "name": "",
      "displayName": "",
      "logoUri": null,
      "contractAbi": null,
      "trustedForDelegateCall": false
    }
  ]
}
```
  </Grid>
</Grid>
<Hr style={{ 
  marginTop: '112px',
  marginBottom: '112px'
}} />

### Get Specific Contract

<Grid container justifyContent='space-between'>
  <Grid item xs={12} md={5.6}>

    

    

    

    <Parameters parameters={[]} />
    <Responses responses={[{"code":"200","schema":{"refName":"Contract","required":["address","name","displayName","contractAbi","trustedForDelegateCall"],"type":"object","properties":{"address":{"title":"Address","type":"string"},"name":{"title":"Name","type":"string","minLength":1},"displayName":{"title":"Display name","type":"string","minLength":1},"logoUri":{"title":"Logo uri","type":"string","readOnly":true,"format":"uri"},"contractAbi":{"refName":"ContractAbi","required":["abi","description","relevance"],"type":"object","properties":{"abi":{"type":"array","items":{"type":"object","additionalProperties":{"type":"string","x-nullable":true}}},"description":{"title":"Description","type":"string","minLength":1},"relevance":{"title":"Relevance","type":"integer"}}},"trustedForDelegateCall":{"title":"Trusted for delegate call","type":"boolean"}}},"description":""}]} />
    <Feedback asPath={"/api-reference#Get-Specific-Contract"} label='Did this API route run successfully?' small />
  </Grid>
  <Grid item xs={12} md={5.6}>
    <Path path="/v1/contracts/{address}/" method="get" />

    <SampleRequestHeader method="get" pathWithParams="/v1/contracts/0xcd2E72aEBe2A203b84f46DEEC948E6465dB51c75/" />

    <CH.Section>
      <CH.Code>
        
```bash 
curl -X GET https://safe-transaction-mainnet.safe.global/api/v1/contracts/0xcd2E72aEBe2A203b84f46DEEC948E6465dB51c75/ \
    -H "Accept: application/json" \
    -H "content-type: application/json" \
    
```
      </CH.Code>
    </CH.Section>
    <NetworkNotice />

    #### Sample Response

```json
{
  "address": "0xcd2E72aEBe2A203b84f46DEEC948E6465dB51c75",
  "name": "Proxy",
  "displayName": "",
  "logoUri": null,
  "contractAbi": {
    "abi": [
      {
        "type": "constructor",
        "inputs": [
          {
            "name": "_masterCopy",
            "type": "address"
          }
        ],
        "payable": false,
        "stateMutability": "nonpayable"
      },
      {
        "type": "fallback",
        "payable": true,
        "stateMutability": "payable"
      }
    ],
    "description": "Proxy",
    "relevance": 100
  },
  "trustedForDelegateCall": false
}
```
  </Grid>
</Grid>
<Hr style={{ 
  marginTop: '112px',
  marginBottom: '112px'
}} />

<Grid my={8} />

## Data-decoder

<Grid my={6} />

### Get Decoded Data

<Grid container justifyContent='space-between'>
  <Grid item xs={12} md={5.6}>

    

    Returns decoded information using tx service internal ABI information given the tx
data as a `0x` prefixed hexadecimal string.
If address of the receiving contract is provided decoded data will be more accurate,
as in case of ABI collision service will know which ABI to use.

    

    <Parameters parameters={[{"name":"data","in":"body","required":true,"schema":{"refName":"DataDecoder","required":["data"],"type":"object","properties":{"data":{"title":"Data","type":"string"},"to":{"title":"To","type":"string","x-nullable":true}}}}]} />
    <Responses responses={[{"code":"200","schema":{},"description":"Decoded data"},{"code":"404","schema":{},"description":"Cannot find function selector to decode data"},{"code":"422","schema":{},"description":"Invalid data"}]} />
    <Feedback asPath={"/api-reference#Get-Decoded-Data"} label='Did this API route run successfully?' small />
  </Grid>
  <Grid item xs={12} md={5.6}>
    <Path path="/v1/data-decoder/" method="post" />

    <SampleRequestHeader method="post" pathWithParams="/v1/data-decoder/" />

    <CH.Section>
      <CH.Code>
        
```bash 
curl -X POST https://safe-transaction-mainnet.safe.global/api/v1/data-decoder/ \
    -H "Accept: application/json" \
    -H "content-type: application/json" \
    -d '{
  "data": "0x8d80ff0a000000000000000000000000000000000000000000000000000000000000002000000000000000000000000000000000000000000000000000000000000004f6006b175474e89094c44da98b954eedeac495271d0f00000000000000000000000000000000000000000000000000000000000000000000000000000000000000000000000000000000000000000000000000000044095ea7b30000000000000000000000001111111254fb6c44bac0bed2854e76f90643097d0000000000000000000000000000000000000000000c685fa11e01ec80000000001111111254fb6c44bac0bed2854e76f90643097d000000000000000000000000000000000000000000000000000000000000000000000000000000000000000000000000000000000000000000000000000004087c025200000000000000000000000000f2f400c138f9fb900576263af0bc7fcde2b1b8a8000000000000000000000000000000000000000000000000000000000000006000000000000000000000000000000000000000000000000000000000000001800000000000000000000000006b175474e89094c44da98b954eedeac495271d0f000000000000000000000000a0b86991c6218b36c1d19d4a2e9eb0ce3606eb48000000000000000000000000f2f400c138f9fb900576263af0bc7fcde2b1b8a80000000000000000000000004f3a120e72c76c22ae802d129f599bfdbc31cb810000000000000000000000000000000000000000000c685fa11e01ec8000000000000000000000000000000000000000000000000000000000000da41c43c100000000000000000000000000000000000000000000000000000000000000000400000000000000000000000000000000000000000000000000000000000001000000000000000000000000000000000000000000000000000000000000000000000000000000000000000000000000000000000000000000000000000000026000000000000000000000000000000000000000000000000000000000000000400000000000000000000000000000000000000000000000000000000000000002000000000000000000000000000000000000000000000000000000000000004000000000000000000000000000000000000000000000000000000000000001408000000000000000000000000000000000000000000000000000000000000000000000000000000000000000000000000000000000000000000000000000000000000000000000000000000000000000000000000000000000000000000000600000000000000000000000000000000000000000000000000000000000000064eb5625d90000000000000000000000006b175474e89094c44da98b954eedeac495271d0f00000000000000000000000089b78cfa322f6c5de0abceecab66aee45393cc5a0000000000000000000000000000000000000000000c685fa11e01ec800000000000000000000000000000000000000000000000000000000000000080000000000000000000000089b78cfa322f6c5de0abceecab66aee45393cc5a0000000000000000000000000000000000000000000000000000000000000000000000000000000000000000000000000000000000000000000000000000006000000000000000000000000000000000000000000000000000000000000000448d7ef9bb0000000000000000000000001111111254fb6c44bac0bed2854e76f90643097d00000000000000000000000000000000000000000000000000000da475abf0000000000000000000000000000000000000000000000000000000000065575cda00000000000000000000",
  "to": "0xBEFA89D90c112A416139F42046Cc2d4A8a308815"
}'
```
      </CH.Code>
    </CH.Section>
    <NetworkNotice />

    #### Sample Response

```json
{
  "method": "multiSend",
  "parameters": [
    {
      "name": "transactions",
      "type": "bytes",
      "value": "0x006b175474e89094c44da98b954eedeac495271d0f00000000000000000000000000000000000000000000000000000000000000000000000000000000000000000000000000000000000000000000000000000044095ea7b30000000000000000000000001111111254fb6c44bac0bed2854e76f90643097d0000000000000000000000000000000000000000000c685fa11e01ec80000000001111111254fb6c44bac0bed2854e76f90643097d000000000000000000000000000000000000000000000000000000000000000000000000000000000000000000000000000000000000000000000000000004087c025200000000000000000000000000f2f400c138f9fb900576263af0bc7fcde2b1b8a8000000000000000000000000000000000000000000000000000000000000006000000000000000000000000000000000000000000000000000000000000001800000000000000000000000006b175474e89094c44da98b954eedeac495271d0f000000000000000000000000a0b86991c6218b36c1d19d4a2e9eb0ce3606eb48000000000000000000000000f2f400c138f9fb900576263af0bc7fcde2b1b8a80000000000000000000000004f3a120e72c76c22ae802d129f599bfdbc31cb810000000000000000000000000000000000000000000c685fa11e01ec8000000000000000000000000000000000000000000000000000000000000da41c43c100000000000000000000000000000000000000000000000000000000000000000400000000000000000000000000000000000000000000000000000000000001000000000000000000000000000000000000000000000000000000000000000000000000000000000000000000000000000000000000000000000000000000026000000000000000000000000000000000000000000000000000000000000000400000000000000000000000000000000000000000000000000000000000000002000000000000000000000000000000000000000000000000000000000000004000000000000000000000000000000000000000000000000000000000000001408000000000000000000000000000000000000000000000000000000000000000000000000000000000000000000000000000000000000000000000000000000000000000000000000000000000000000000000000000000000000000000000600000000000000000000000000000000000000000000000000000000000000064eb5625d90000000000000000000000006b175474e89094c44da98b954eedeac495271d0f00000000000000000000000089b78cfa322f6c5de0abceecab66aee45393cc5a0000000000000000000000000000000000000000000c685fa11e01ec800000000000000000000000000000000000000000000000000000000000000080000000000000000000000089b78cfa322f6c5de0abceecab66aee45393cc5a0000000000000000000000000000000000000000000000000000000000000000000000000000000000000000000000000000000000000000000000000000006000000000000000000000000000000000000000000000000000000000000000448d7ef9bb0000000000000000000000001111111254fb6c44bac0bed2854e76f90643097d00000000000000000000000000000000000000000000000000000da475abf0000000000000000000000000000000000000000000000000000000000065575cda",
      "valueDecoded": [
        {
          "operation": 0,
          "to": "0x6B175474E89094C44Da98b954EedeAC495271d0F",
          "value": "0",
          "data": "0x095ea7b30000000000000000000000001111111254fb6c44bac0bed2854e76f90643097d0000000000000000000000000000000000000000000c685fa11e01ec80000000",
          "dataDecoded": {
            "method": "approve",
            "parameters": [
              {
                "name": "usr",
                "type": "address",
                "value": "0x1111111254fb6c44bAC0beD2854e76F90643097d"
              },
              {
                "name": "wad",
                "type": "uint256",
                "value": "15000000000000000285212672"
              }
            ]
          }
        },
        {
          "operation": 0,
          "to": "0x1111111254fb6c44bAC0beD2854e76F90643097d",
          "value": "0",
          "data": "0x7c025200000000000000000000000000f2f400c138f9fb900576263af0bc7fcde2b1b8a8000000000000000000000000000000000000000000000000000000000000006000000000000000000000000000000000000000000000000000000000000001800000000000000000000000006b175474e89094c44da98b954eedeac495271d0f000000000000000000000000a0b86991c6218b36c1d19d4a2e9eb0ce3606eb48000000000000000000000000f2f400c138f9fb900576263af0bc7fcde2b1b8a80000000000000000000000004f3a120e72c76c22ae802d129f599bfdbc31cb810000000000000000000000000000000000000000000c685fa11e01ec8000000000000000000000000000000000000000000000000000000000000da41c43c100000000000000000000000000000000000000000000000000000000000000000400000000000000000000000000000000000000000000000000000000000001000000000000000000000000000000000000000000000000000000000000000000000000000000000000000000000000000000000000000000000000000000026000000000000000000000000000000000000000000000000000000000000000400000000000000000000000000000000000000000000000000000000000000002000000000000000000000000000000000000000000000000000000000000004000000000000000000000000000000000000000000000000000000000000001408000000000000000000000000000000000000000000000000000000000000000000000000000000000000000000000000000000000000000000000000000000000000000000000000000000000000000000000000000000000000000000000600000000000000000000000000000000000000000000000000000000000000064eb5625d90000000000000000000000006b175474e89094c44da98b954eedeac495271d0f00000000000000000000000089b78cfa322f6c5de0abceecab66aee45393cc5a0000000000000000000000000000000000000000000c685fa11e01ec800000000000000000000000000000000000000000000000000000000000000080000000000000000000000089b78cfa322f6c5de0abceecab66aee45393cc5a0000000000000000000000000000000000000000000000000000000000000000000000000000000000000000000000000000000000000000000000000000006000000000000000000000000000000000000000000000000000000000000000448d7ef9bb0000000000000000000000001111111254fb6c44bac0bed2854e76f90643097d00000000000000000000000000000000000000000000000000000da475abf0000000000000000000000000000000000000000000000000000000000065575cda",
          "dataDecoded": {
            "method": "swap",
            "parameters": [
              {
                "name": "caller",
                "type": "address",
                "value": "0xF2F400C138F9fb900576263af0BC7fCde2B1b8a8"
              },
              {
                "name": "desc",
                "type": "(address,address,address,address,uint256,uint256,uint256,bytes)",
                "value": [
                  "0x6B175474E89094C44Da98b954EedeAC495271d0F",
                  "0xA0b86991c6218b36c1d19D4a2e9Eb0cE3606eB48",
                  "0xF2F400C138F9fb900576263af0BC7fCde2B1b8a8",
                  "0x4f3a120E72C76c22ae802D129F599BFDbc31cb81",
                  "15000000000000000285212672",
                  "14998500000000",
                  "4",
                  "0x"
                ]
              },
              {
                "name": "data",
                "type": "bytes",
                "value": "0x00000000000000000000000000000000000000000000000000000000000000400000000000000000000000000000000000000000000000000000000000000002000000000000000000000000000000000000000000000000000000000000004000000000000000000000000000000000000000000000000000000000000001408000000000000000000000000000000000000000000000000000000000000000000000000000000000000000000000000000000000000000000000000000000000000000000000000000000000000000000000000000000000000000000000600000000000000000000000000000000000000000000000000000000000000064eb5625d90000000000000000000000006b175474e89094c44da98b954eedeac495271d0f00000000000000000000000089b78cfa322f6c5de0abceecab66aee45393cc5a0000000000000000000000000000000000000000000c685fa11e01ec800000000000000000000000000000000000000000000000000000000000000080000000000000000000000089b78cfa322f6c5de0abceecab66aee45393cc5a0000000000000000000000000000000000000000000000000000000000000000000000000000000000000000000000000000000000000000000000000000006000000000000000000000000000000000000000000000000000000000000000448d7ef9bb0000000000000000000000001111111254fb6c44bac0bed2854e76f90643097d00000000000000000000000000000000000000000000000000000da475abf00000000000000000000000000000000000000000000000000000000000"
              }
            ]
          }
        }
      ]
    }
  ]
}
```
  </Grid>
</Grid>
<Hr style={{ 
  marginTop: '112px',
  marginBottom: '112px'
}} />

<Grid my={8} />

## Delegates

<Grid my={6} />

### List Delegates

<Grid container justifyContent='space-between'>
  <Grid item xs={12} md={5.6}>

    

    Get list of delegates

    

    <Parameters parameters={[{"name":"safe","in":"query","description":"safe","required":false,"type":"string"},{"name":"delegate","in":"query","description":"delegate","required":false,"type":"string"},{"name":"delegator","in":"query","description":"delegator","required":false,"type":"string"},{"name":"label","in":"query","description":"label","required":false,"type":"string"},{"name":"limit","in":"query","description":"Number of results to return per page.","required":false,"type":"integer"},{"name":"offset","in":"query","description":"The initial index from which to return the results.","required":false,"type":"integer"}]} />
    <Responses responses={[{"code":"200","schema":{"required":["count","results"],"type":"object","properties":{"count":{"type":"integer"},"next":{"type":"string","format":"uri","x-nullable":true},"previous":{"type":"string","format":"uri","x-nullable":true},"results":{"type":"array","items":{"refName":"SafeDelegateResponse","required":["safe","delegate","delegator","label"],"type":"object","properties":{"safe":{"title":"Safe","type":"string"},"delegate":{"title":"Delegate","type":"string"},"delegator":{"title":"Delegator","type":"string"},"label":{"title":"Label","type":"string","maxLength":50,"minLength":1}}}}}},"description":""},{"code":"400","schema":{},"description":"Invalid data"}]} />
    <Feedback asPath={"/api-reference#List-Delegates"} label='Did this API route run successfully?' small />
  </Grid>
  <Grid item xs={12} md={5.6}>
    <Path path="/v2/delegates/" method="get" />

    <SampleRequestHeader method="get" pathWithParams="/v2/delegates/" />

    <CH.Section>
      <CH.Code>
        
```bash 
curl -X GET https://safe-transaction-mainnet.safe.global/api/v2/delegates/ \
    -H "Accept: application/json" \
    -H "content-type: application/json" \
    
```
      </CH.Code>
    </CH.Section>
    <NetworkNotice />

    #### Sample Response

```json
{
  "count": 0,
  "next": null,
  "previous": null,
  "results": []
}
```
  </Grid>
</Grid>
<Hr style={{ 
  marginTop: '112px',
  marginBottom: '112px'
}} />

### Create Delegate

<Grid container justifyContent='space-between'>
  <Grid item xs={12} md={5.6}>

    

    Create a delegate for a Safe address with a custom label. Calls with same delegate but different label or
signer will update the label or delegator if different.
An EOA is required to sign the following EIP712 data:

```python
 {
    "types": {
        "EIP712Domain": [
            {"name": "name", "type": "string"},
            {"name": "version", "type": "string"},
            {"name": "chainId", "type": "uint256"},
        ],
        "AddDelegate": [
            {"name": "delegateAddress", "type": "bytes32"},
            {"name": "totp", "type": "uint256"},
        ],
    },
    "primaryType": "AddDelegate",
    "domain": {
        "name": "Safe Transaction Service",
        "version": "1.0",
        "chainId": chain_id,
    },
    "message": {
        "delegateAddress": delegate_address,
        "totp": totp,
    },
}
```

`totp` parameter is calculated with `T0=0` and `Tx=3600`. `totp` is calculated by taking the
Unix UTC epoch time (no milliseconds) and dividing by 3600 (natural division, no decimals)

    

    <Parameters parameters={[{"name":"data","in":"body","required":true,"schema":{"refName":"DelegateSerializerV2","required":["delegate","delegator","signature","label"],"type":"object","properties":{"safe":{"title":"Safe","type":"string","x-nullable":true},"delegate":{"title":"Delegate","type":"string"},"delegator":{"title":"Delegator","type":"string"},"signature":{"title":"Signature","type":"string"},"label":{"title":"Label","type":"string","maxLength":50,"minLength":1}}}}]} />
    <Responses responses={[{"code":"202","schema":{},"description":"Accepted"},{"code":"400","schema":{},"description":"Malformed data"}]} />
    <Feedback asPath={"/api-reference#Create-Delegate"} label='Did this API route run successfully?' small />
  </Grid>
  <Grid item xs={12} md={5.6}>
    <Path path="/v2/delegates/" method="post" />

    <SampleRequestHeader method="post" pathWithParams="/v2/delegates/" />

    <CH.Section>
      <CH.Code>
        
```bash 
curl -X POST https://safe-transaction-mainnet.safe.global/api/v2/delegates/ \
    -H "Accept: application/json" \
    -H "content-type: application/json" \
    -d '{
  "safe": "0xB88F61E6FbdA83fbfffAbE364112137480398018",
  "delegate": "0x5A93Fe8eBBf78738468c10894D7f36fA247b71C0",
  "delegator": "0x5A93Fe8eBBf78738468c10894D7f36fA247b71C0",
  "signature": "0xae31da115daa589fa3cee016c756d191d4140fc0eb30c1565cdddcad35068300669abda9c56e1c5886d72c599e1af29fc70eedd16be72109aa593699661482121c",
  "label": "3b3b57b3"
}'
```
      </CH.Code>
    </CH.Section>
    <NetworkNotice />

    
  </Grid>
</Grid>
<Hr style={{ 
  marginTop: '112px',
  marginBottom: '112px'
}} />

### List Delegates

<Grid container justifyContent='space-between'>
  <Grid item xs={12} md={5.6}>

    

    Get list of delegates

    

    <Parameters parameters={[{"name":"safe","in":"query","description":"safe","required":false,"type":"string"},{"name":"delegate","in":"query","description":"delegate","required":false,"type":"string"},{"name":"delegator","in":"query","description":"delegator","required":false,"type":"string"},{"name":"label","in":"query","description":"label","required":false,"type":"string"},{"name":"limit","in":"query","description":"Number of results to return per page.","required":false,"type":"integer"},{"name":"offset","in":"query","description":"The initial index from which to return the results.","required":false,"type":"integer"}]} />
    <Responses responses={[{"code":"200","schema":{"required":["count","results"],"type":"object","properties":{"count":{"type":"integer"},"next":{"type":"string","format":"uri","x-nullable":true},"previous":{"type":"string","format":"uri","x-nullable":true},"results":{"type":"array","items":{"refName":"SafeDelegateResponse","required":["safe","delegate","delegator","label"],"type":"object","properties":{"safe":{"title":"Safe","type":"string"},"delegate":{"title":"Delegate","type":"string"},"delegator":{"title":"Delegator","type":"string"},"label":{"title":"Label","type":"string","maxLength":50,"minLength":1}}}}}},"description":""},{"code":"400","schema":{},"description":"Invalid data"}]} />
    <Feedback asPath={"/api-reference#List-Delegates"} label='Did this API route run successfully?' small />
  </Grid>
  <Grid item xs={12} md={5.6}>
    <Path path="/v2/delegates/" method="get" />

    <SampleRequestHeader method="get" pathWithParams="/v2/delegates/" />

    <CH.Section>
      <CH.Code>
        
```bash 
curl -X GET https://safe-transaction-mainnet.safe.global/api/v2/delegates/ \
    -H "Accept: application/json" \
    -H "content-type: application/json" \
    
```
      </CH.Code>
    </CH.Section>
    <NetworkNotice />

    #### Sample Response

```json
{
  "count": 0,
  "next": null,
  "previous": null,
  "results": []
}
```
  </Grid>
</Grid>
<Hr style={{ 
  marginTop: '112px',
  marginBottom: '112px'
}} />

### Create Delegate

<Grid container justifyContent='space-between'>
  <Grid item xs={12} md={5.6}>

    

    Create a delegate for a Safe address with a custom label. Calls with same delegate but different label or
signer will update the label or delegator if different.
An EOA is required to sign the following EIP712 data:

```python
 {
    "types": {
        "EIP712Domain": [
            {"name": "name", "type": "string"},
            {"name": "version", "type": "string"},
            {"name": "chainId", "type": "uint256"},
        ],
        "AddDelegate": [
            {"name": "delegateAddress", "type": "bytes32"},
            {"name": "totp", "type": "uint256"},
        ],
    },
    "primaryType": "AddDelegate",
    "domain": {
        "name": "Safe Transaction Service",
        "version": "1.0",
        "chainId": chain_id,
    },
    "message": {
        "delegateAddress": delegate_address,
        "totp": totp,
    },
}
```

`totp` parameter is calculated with `T0=0` and `Tx=3600`. `totp` is calculated by taking the
Unix UTC epoch time (no milliseconds) and dividing by 3600 (natural division, no decimals)

    

    <Parameters parameters={[{"name":"data","in":"body","required":true,"schema":{"refName":"DelegateSerializerV2","required":["delegate","delegator","signature","label"],"type":"object","properties":{"safe":{"title":"Safe","type":"string","x-nullable":true},"delegate":{"title":"Delegate","type":"string"},"delegator":{"title":"Delegator","type":"string"},"signature":{"title":"Signature","type":"string"},"label":{"title":"Label","type":"string","maxLength":50,"minLength":1}}}}]} />
    <Responses responses={[{"code":"202","schema":{},"description":"Accepted"},{"code":"400","schema":{},"description":"Malformed data"}]} />
    <Feedback asPath={"/api-reference#Create-Delegate"} label='Did this API route run successfully?' small />
  </Grid>
  <Grid item xs={12} md={5.6}>
    <Path path="/v2/delegates/" method="post" />

    <SampleRequestHeader method="post" pathWithParams="/v2/delegates/" />

    <CH.Section>
      <CH.Code>
        
```bash 
curl -X POST https://safe-transaction-mainnet.safe.global/api/v2/delegates/ \
    -H "Accept: application/json" \
    -H "content-type: application/json" \
    -d '{
  "safe": "0xB88F61E6FbdA83fbfffAbE364112137480398018",
  "delegate": "0x5A93Fe8eBBf78738468c10894D7f36fA247b71C0",
  "delegator": "0x5A93Fe8eBBf78738468c10894D7f36fA247b71C0",
  "signature": "0xae31da115daa589fa3cee016c756d191d4140fc0eb30c1565cdddcad35068300669abda9c56e1c5886d72c599e1af29fc70eedd16be72109aa593699661482121c",
  "label": "3b3b57b3"
}'
```
      </CH.Code>
    </CH.Section>
    <NetworkNotice />

    
  </Grid>
</Grid>
<Hr style={{ 
  marginTop: '112px',
  marginBottom: '112px'
}} />

### Delete Delegate

<Grid container justifyContent='space-between'>
  <Grid item xs={12} md={5.6}>

    

    Removes all delegate/delegator pairs found or combinations of safe/delegate/delegator/delegate. The signature
is constructed in the same way as for adding a delegate, but in this case the signer can be either the
`delegator` (owner) or the `delegate` itself. Check `POST /delegates/`.

    

    <Parameters parameters={[{"name":"data","in":"body","required":true,"schema":{"refName":"DelegateDeleteSerializerV2","required":["delegator","signature"],"type":"object","properties":{"safe":{"title":"Safe","type":"string","x-nullable":true},"delegator":{"title":"Delegator","type":"string"},"signature":{"title":"Signature","type":"string"}}}}]} />
    <Responses responses={[{"code":"204","schema":{},"description":"Deleted"},{"code":"400","schema":{},"description":"Malformed data"},{"code":"404","schema":{},"description":"Delegate not found"},{"code":"422","schema":{},"description":"Invalid Ethereum address/Error processing data"}]} />
    <Feedback asPath={"/api-reference#Delete-Delegate"} label='Did this API route run successfully?' small />
  </Grid>
  <Grid item xs={12} md={5.6}>
    <Path path="/v2/delegates/{delegate_address}/" method="delete" />

    <SampleRequestHeader method="delete" pathWithParams="/v2/delegates/0x5A93Fe8eBBf78738468c10894D7f36fA247b71C0/" />

    <CH.Section>
      <CH.Code>
        
```bash 
curl -X DELETE https://safe-transaction-mainnet.safe.global/api/v2/delegates/0x5A93Fe8eBBf78738468c10894D7f36fA247b71C0/ \
    -H "Accept: application/json" \
    -H "content-type: application/json" \
    -d '{
  "safe": "0xB88F61E6FbdA83fbfffAbE364112137480398018",
  "delegator": "0x5A93Fe8eBBf78738468c10894D7f36fA247b71C0",
  "signature": "0xae31da115daa589fa3cee016c756d191d4140fc0eb30c1565cdddcad35068300669abda9c56e1c5886d72c599e1af29fc70eedd16be72109aa593699661482121c"
}'
```
      </CH.Code>
    </CH.Section>
    <NetworkNotice />

    #### Sample Response

```json
"Deleted"
```
  </Grid>
</Grid>
<Hr style={{ 
  marginTop: '112px',
  marginBottom: '112px'
}} />

<Grid my={8} />

## Messages

<Grid my={6} />

### Get Message

<Grid container justifyContent='space-between'>
  <Grid item xs={12} md={5.6}>

    

    

    

    <Parameters parameters={[]} />
    <Responses responses={[{"code":"200","schema":{"refName":"SafeMessageResponse","required":["created","modified","safe","messageHash","message","proposedBy","safeAppId"],"type":"object","properties":{"created":{"title":"Created","type":"string","format":"date-time"},"modified":{"title":"Modified","type":"string","format":"date-time"},"safe":{"title":"Safe","type":"string"},"messageHash":{"title":"Message hash","type":"string"},"message":{"title":"Message","type":"object"},"proposedBy":{"title":"Proposed by","type":"string"},"safeAppId":{"title":"Safe app id","type":"integer"},"confirmations":{"title":"Confirmations","type":"string","readOnly":true},"preparedSignature":{"title":"Prepared signature","type":"string","readOnly":true}}},"description":""}]} />
    <Feedback asPath={"/api-reference#Get-Message"} label='Did this API route run successfully?' small />
  </Grid>
  <Grid item xs={12} md={5.6}>
    <Path path="/v1/messages/{message_hash}/" method="get" />

    <SampleRequestHeader method="get" pathWithParams="/v1/messages/0x3b3b57b3/" />

    <CH.Section>
      <CH.Code>
        
```bash 
curl -X GET https://safe-transaction-mainnet.safe.global/api/v1/messages/0x3b3b57b3/ \
    -H "Accept: application/json" \
    -H "content-type: application/json" \
    
```
      </CH.Code>
    </CH.Section>
    <NetworkNotice />

    
  </Grid>
</Grid>
<Hr style={{ 
  marginTop: '112px',
  marginBottom: '112px'
}} />

### Sign Message

<Grid container justifyContent='space-between'>
  <Grid item xs={12} md={5.6}>

    

    

    

    <Parameters parameters={[{"name":"data","in":"body","required":true,"schema":{"refName":"SafeMessageSignature","required":["signature"],"type":"object","properties":{"signature":{"title":"Signature","type":"string"}}}}]} />
    <Responses responses={[{"code":"201","schema":{},"description":"Created"}]} />
    <Feedback asPath={"/api-reference#Sign-Message"} label='Did this API route run successfully?' small />
  </Grid>
  <Grid item xs={12} md={5.6}>
    <Path path="/v1/messages/{message_hash}/signatures/" method="post" />

    <SampleRequestHeader method="post" pathWithParams="/v1/messages/0x3b3b57b3/signatures/" />

    <CH.Section>
      <CH.Code>
        
```bash 
curl -X POST https://safe-transaction-mainnet.safe.global/api/v1/messages/0x3b3b57b3/signatures/ \
    -H "Accept: application/json" \
    -H "content-type: application/json" \
    -d '{
  "signature": "0xae31da115daa589fa3cee016c756d191d4140fc0eb30c1565cdddcad35068300669abda9c56e1c5886d72c599e1af29fc70eedd16be72109aa593699661482121c"
}'
```
      </CH.Code>
    </CH.Section>
    <NetworkNotice />

    
  </Grid>
</Grid>
<Hr style={{ 
  marginTop: '112px',
  marginBottom: '112px'
}} />

### List Messages

<Grid container justifyContent='space-between'>
  <Grid item xs={12} md={5.6}>

    

    

    

    <Parameters parameters={[{"name":"ordering","in":"query","description":"Which field to use when ordering the results.","required":false,"type":"string"},{"name":"limit","in":"query","description":"Number of results to return per page.","required":false,"type":"integer"},{"name":"offset","in":"query","description":"The initial index from which to return the results.","required":false,"type":"integer"}]} />
    <Responses responses={[{"code":"200","schema":{"required":["count","results"],"type":"object","properties":{"count":{"type":"integer"},"next":{"type":"string","format":"uri","x-nullable":true},"previous":{"type":"string","format":"uri","x-nullable":true},"results":{"type":"array","items":{"refName":"SafeMessageResponse","required":["created","modified","safe","messageHash","message","proposedBy","safeAppId"],"type":"object","properties":{"created":{"title":"Created","type":"string","format":"date-time"},"modified":{"title":"Modified","type":"string","format":"date-time"},"safe":{"title":"Safe","type":"string"},"messageHash":{"title":"Message hash","type":"string"},"message":{"title":"Message","type":"object"},"proposedBy":{"title":"Proposed by","type":"string"},"safeAppId":{"title":"Safe app id","type":"integer"},"confirmations":{"title":"Confirmations","type":"string","readOnly":true},"preparedSignature":{"title":"Prepared signature","type":"string","readOnly":true}}}}}},"description":""}]} />
    <Feedback asPath={"/api-reference#List-Messages"} label='Did this API route run successfully?' small />
  </Grid>
  <Grid item xs={12} md={5.6}>
    <Path path="/v1/safes/{address}/messages/" method="get" />

    <SampleRequestHeader method="get" pathWithParams="/v1/safes/0xcd2E72aEBe2A203b84f46DEEC948E6465dB51c75/messages/" />

    <CH.Section>
      <CH.Code>
        
```bash 
curl -X GET https://safe-transaction-mainnet.safe.global/api/v1/safes/0xcd2E72aEBe2A203b84f46DEEC948E6465dB51c75/messages/ \
    -H "Accept: application/json" \
    -H "content-type: application/json" \
    
```
      </CH.Code>
    </CH.Section>
    <NetworkNotice />

    #### Sample Response

```json
{
  "count": 0,
  "next": null,
  "previous": null,
  "results": []
}
```
  </Grid>
</Grid>
<Hr style={{ 
  marginTop: '112px',
  marginBottom: '112px'
}} />

### Create Signed Message

<Grid container justifyContent='space-between'>
  <Grid item xs={12} md={5.6}>

    

    Create a new signed message for a Safe. Message can be:
- A ``string``, so ``EIP191`` will be used to get the hash.
- An ``EIP712`` ``object``.

Hash will be calculated from the provided ``message``. Sending a raw ``hash`` will not be accepted,
service needs to derive it itself.

    

    <Parameters parameters={[{"name":"data","in":"body","required":true,"schema":{"refName":"SafeMessage","required":["message","signature"],"type":"object","properties":{"message":{"title":"Message","type":"object"},"safeAppId":{"title":"Safe app id","type":"integer","minimum":0,"x-nullable":true},"signature":{"title":"Signature","type":"string"}}}}]} />
    <Responses responses={[{"code":"201","schema":{},"description":"Created"}]} />
    <Feedback asPath={"/api-reference#Create-Signed-Message"} label='Did this API route run successfully?' small />
  </Grid>
  <Grid item xs={12} md={5.6}>
    <Path path="/v1/safes/{address}/messages/" method="post" />

    <SampleRequestHeader method="post" pathWithParams="/v1/safes/0xcd2E72aEBe2A203b84f46DEEC948E6465dB51c75/messages/" />

    <CH.Section>
      <CH.Code>
        
```bash 
curl -X POST https://safe-transaction-mainnet.safe.global/api/v1/safes/0xcd2E72aEBe2A203b84f46DEEC948E6465dB51c75/messages/ \
    -H "Accept: application/json" \
    -H "content-type: application/json" \
    -d '{
  "message": "0x1234",
  "safeAppId": "safeAppId",
  "signature": "0xae31da115daa589fa3cee016c756d191d4140fc0eb30c1565cdddcad35068300669abda9c56e1c5886d72c599e1af29fc70eedd16be72109aa593699661482121c"
}'
```
      </CH.Code>
    </CH.Section>
    <NetworkNotice />

    
  </Grid>
</Grid>
<Hr style={{ 
  marginTop: '112px',
  marginBottom: '112px'
}} />

### List Messages

<Grid container justifyContent='space-between'>
  <Grid item xs={12} md={5.6}>

    

    

    

    <Parameters parameters={[{"name":"ordering","in":"query","description":"Which field to use when ordering the results.","required":false,"type":"string"},{"name":"limit","in":"query","description":"Number of results to return per page.","required":false,"type":"integer"},{"name":"offset","in":"query","description":"The initial index from which to return the results.","required":false,"type":"integer"}]} />
    <Responses responses={[{"code":"200","schema":{"required":["count","results"],"type":"object","properties":{"count":{"type":"integer"},"next":{"type":"string","format":"uri","x-nullable":true},"previous":{"type":"string","format":"uri","x-nullable":true},"results":{"type":"array","items":{"refName":"SafeMessageResponse","required":["created","modified","safe","messageHash","message","proposedBy","safeAppId"],"type":"object","properties":{"created":{"title":"Created","type":"string","format":"date-time"},"modified":{"title":"Modified","type":"string","format":"date-time"},"safe":{"title":"Safe","type":"string"},"messageHash":{"title":"Message hash","type":"string"},"message":{"title":"Message","type":"object"},"proposedBy":{"title":"Proposed by","type":"string"},"safeAppId":{"title":"Safe app id","type":"integer"},"confirmations":{"title":"Confirmations","type":"string","readOnly":true},"preparedSignature":{"title":"Prepared signature","type":"string","readOnly":true}}}}}},"description":""}]} />
    <Feedback asPath={"/api-reference#List-Messages"} label='Did this API route run successfully?' small />
  </Grid>
  <Grid item xs={12} md={5.6}>
    <Path path="/v1/safes/{address}/messages/" method="get" />

    <SampleRequestHeader method="get" pathWithParams="/v1/safes/0xcd2E72aEBe2A203b84f46DEEC948E6465dB51c75/messages/" />

    <CH.Section>
      <CH.Code>
        
```bash 
curl -X GET https://safe-transaction-mainnet.safe.global/api/v1/safes/0xcd2E72aEBe2A203b84f46DEEC948E6465dB51c75/messages/ \
    -H "Accept: application/json" \
    -H "content-type: application/json" \
    
```
      </CH.Code>
    </CH.Section>
    <NetworkNotice />

    #### Sample Response

```json
{
  "count": 0,
  "next": null,
  "previous": null,
  "results": []
}
```
  </Grid>
</Grid>
<Hr style={{ 
  marginTop: '112px',
  marginBottom: '112px'
}} />

### Create Signed Message

<Grid container justifyContent='space-between'>
  <Grid item xs={12} md={5.6}>

    

    Create a new signed message for a Safe. Message can be:
- A ``string``, so ``EIP191`` will be used to get the hash.
- An ``EIP712`` ``object``.

Hash will be calculated from the provided ``message``. Sending a raw ``hash`` will not be accepted,
service needs to derive it itself.

    

    <Parameters parameters={[{"name":"data","in":"body","required":true,"schema":{"refName":"SafeMessage","required":["message","signature"],"type":"object","properties":{"message":{"title":"Message","type":"object"},"safeAppId":{"title":"Safe app id","type":"integer","minimum":0,"x-nullable":true},"signature":{"title":"Signature","type":"string"}}}}]} />
    <Responses responses={[{"code":"201","schema":{},"description":"Created"}]} />
    <Feedback asPath={"/api-reference#Create-Signed-Message"} label='Did this API route run successfully?' small />
  </Grid>
  <Grid item xs={12} md={5.6}>
    <Path path="/v1/safes/{address}/messages/" method="post" />

    <SampleRequestHeader method="post" pathWithParams="/v1/safes/0xcd2E72aEBe2A203b84f46DEEC948E6465dB51c75/messages/" />

    <CH.Section>
      <CH.Code>
        
```bash 
curl -X POST https://safe-transaction-mainnet.safe.global/api/v1/safes/0xcd2E72aEBe2A203b84f46DEEC948E6465dB51c75/messages/ \
    -H "Accept: application/json" \
    -H "content-type: application/json" \
    -d '{
  "message": "0x1234",
  "safeAppId": "safeAppId",
  "signature": "0xae31da115daa589fa3cee016c756d191d4140fc0eb30c1565cdddcad35068300669abda9c56e1c5886d72c599e1af29fc70eedd16be72109aa593699661482121c"
}'
```
      </CH.Code>
    </CH.Section>
    <NetworkNotice />

    
  </Grid>
</Grid>
<Hr style={{ 
  marginTop: '112px',
  marginBottom: '112px'
}} />

<Grid my={8} />

## Modules

<Grid my={6} />

### List Safes that use a Specific Module

<Grid container justifyContent='space-between'>
  <Grid item xs={12} md={5.6}>

    

    Return Safes where the module address provided is enabled

    

    <Parameters parameters={[]} />
    <Responses responses={[{"code":"200","schema":{"refName":"ModulesResponse","required":["safes"],"type":"object","properties":{"safes":{"type":"array","items":{"type":"string"}}}},"description":""},{"code":"422","schema":{},"description":"Module address checksum not valid"}]} />
    <Feedback asPath={"/api-reference#List-Safes-that-use-a-Specific-Module"} label='Did this API route run successfully?' small />
  </Grid>
  <Grid item xs={12} md={5.6}>
    <Path path="/v1/modules/{address}/safes/" method="get" />

    <SampleRequestHeader method="get" pathWithParams="/v1/modules/0xcd2E72aEBe2A203b84f46DEEC948E6465dB51c75/safes/" />

    <CH.Section>
      <CH.Code>
        
```bash 
curl -X GET https://safe-transaction-mainnet.safe.global/api/v1/modules/0xcd2E72aEBe2A203b84f46DEEC948E6465dB51c75/safes/ \
    -H "Accept: application/json" \
    -H "content-type: application/json" \
    
```
      </CH.Code>
    </CH.Section>
    <NetworkNotice />

    #### Sample Response

```json
{
  "safes": []
}
```
  </Grid>
</Grid>
<Hr style={{ 
  marginTop: '112px',
  marginBottom: '112px'
}} />

<Grid my={8} />

## Owners

<Grid my={6} />

### List Safes from a Specific Owner

<Grid container justifyContent='space-between'>
  <Grid item xs={12} md={5.6}>

    

    Return Safes where the address provided is an owner

    

    <Parameters parameters={[]} />
    <Responses responses={[{"code":"200","schema":{"refName":"OwnerResponse","required":["safes"],"type":"object","properties":{"safes":{"type":"array","items":{"type":"string"}}}},"description":""},{"code":"422","schema":{},"description":"Owner address checksum not valid"}]} />
    <Feedback asPath={"/api-reference#List-Safes-from-a-Specific-Owner"} label='Did this API route run successfully?' small />
  </Grid>
  <Grid item xs={12} md={5.6}>
    <Path path="/v1/owners/{address}/safes/" method="get" />

    <SampleRequestHeader method="get" pathWithParams="/v1/owners/0xcd2E72aEBe2A203b84f46DEEC948E6465dB51c75/safes/" />

    <CH.Section>
      <CH.Code>
        
```bash 
curl -X GET https://safe-transaction-mainnet.safe.global/api/v1/owners/0xcd2E72aEBe2A203b84f46DEEC948E6465dB51c75/safes/ \
    -H "Accept: application/json" \
    -H "content-type: application/json" \
    
```
      </CH.Code>
    </CH.Section>
    <NetworkNotice />

    #### Sample Response

```json
{
  "safes": []
}
```
  </Grid>
</Grid>
<Hr style={{ 
  marginTop: '112px',
  marginBottom: '112px'
}} />

<Grid my={8} />

## 4337

<Grid my={6} />

### Get Safe Operation

<Grid container justifyContent='space-between'>
  <Grid item xs={12} md={5.6}>

    

    

    

    <Parameters parameters={[]} />
    <Responses responses={[{"code":"200","schema":{"refName":"SafeOperationWithUserOperationResponse","required":["created","modified","safeOperationHash","validAfter","validUntil","moduleAddress"],"type":"object","properties":{"created":{"title":"Created","type":"string","format":"date-time"},"modified":{"title":"Modified","type":"string","format":"date-time"},"safeOperationHash":{"title":"Safe operation hash","type":"string"},"validAfter":{"title":"Valid after","type":"string","format":"date-time"},"validUntil":{"title":"Valid until","type":"string","format":"date-time"},"moduleAddress":{"title":"Module address","type":"string"},"confirmations":{"title":"Confirmations","type":"string","readOnly":true},"preparedSignature":{"title":"Prepared signature","type":"string","readOnly":true},"userOperation":{"refName":"UserOperationResponse","required":["ethereumTxHash","sender","userOperationHash","nonce","initCode","callData","callDataGasLimit","verificationGasLimit","preVerificationGas","maxFeePerGas","maxPriorityFeePerGas","paymaster","paymasterData","signature","entryPoint"],"type":"object","properties":{"ethereumTxHash":{"title":"Ethereum tx hash","type":"string"},"sender":{"title":"Sender","type":"string"},"userOperationHash":{"title":"User operation hash","type":"string"},"nonce":{"title":"Nonce","type":"integer","minimum":0},"initCode":{"title":"Init code","type":"string","x-nullable":true},"callData":{"title":"Call data","type":"string","x-nullable":true},"callDataGasLimit":{"title":"Call data gas limit","type":"integer","minimum":0},"verificationGasLimit":{"title":"Verification gas limit","type":"integer","minimum":0},"preVerificationGas":{"title":"Pre verification gas","type":"integer","minimum":0},"maxFeePerGas":{"title":"Max fee per gas","type":"integer","minimum":0},"maxPriorityFeePerGas":{"title":"Max priority fee per gas","type":"integer","minimum":0},"paymaster":{"title":"Paymaster","type":"string","x-nullable":true},"paymasterData":{"title":"Paymaster data","type":"string","x-nullable":true},"signature":{"title":"Signature","type":"string"},"entryPoint":{"title":"Entry point","type":"string"}}}}},"description":""}]} />
    <Feedback asPath={"/api-reference#Get-Safe-Operation"} label='Did this API route run successfully?' small />
  </Grid>
  <Grid item xs={12} md={5.6}>
    <Path path="/v1/safe-operations/{safe_operation_hash}/" method="get" />

    <SampleRequestHeader method="get" pathWithParams="/v1/safe-operations//" />

    <CH.Section>
      <CH.Code>
        
```bash 
curl -X GET https://safe-transaction-mainnet.safe.global/api/v1/safe-operations// \
    -H "Accept: application/json" \
    -H "content-type: application/json" \
    
```
      </CH.Code>
    </CH.Section>
    <NetworkNotice />

    
  </Grid>
</Grid>
<Hr style={{ 
  marginTop: '112px',
  marginBottom: '112px'
}} />

### List Safe Operations

<Grid container justifyContent='space-between'>
  <Grid item xs={12} md={5.6}>

    

    

    

    <Parameters parameters={[{"name":"ordering","in":"query","description":"Which field to use when ordering the results.","required":false,"type":"string"},{"name":"limit","in":"query","description":"Number of results to return per page.","required":false,"type":"integer"},{"name":"offset","in":"query","description":"The initial index from which to return the results.","required":false,"type":"integer"}]} />
    <Responses responses={[{"code":"200","schema":{"required":["count","results"],"type":"object","properties":{"count":{"type":"integer"},"next":{"type":"string","format":"uri","x-nullable":true},"previous":{"type":"string","format":"uri","x-nullable":true},"results":{"type":"array","items":{"refName":"SafeOperationWithUserOperationResponse","required":["created","modified","safeOperationHash","validAfter","validUntil","moduleAddress"],"type":"object","properties":{"created":{"title":"Created","type":"string","format":"date-time"},"modified":{"title":"Modified","type":"string","format":"date-time"},"safeOperationHash":{"title":"Safe operation hash","type":"string"},"validAfter":{"title":"Valid after","type":"string","format":"date-time"},"validUntil":{"title":"Valid until","type":"string","format":"date-time"},"moduleAddress":{"title":"Module address","type":"string"},"confirmations":{"title":"Confirmations","type":"string","readOnly":true},"preparedSignature":{"title":"Prepared signature","type":"string","readOnly":true},"userOperation":{"refName":"UserOperationResponse","required":["ethereumTxHash","sender","userOperationHash","nonce","initCode","callData","callDataGasLimit","verificationGasLimit","preVerificationGas","maxFeePerGas","maxPriorityFeePerGas","paymaster","paymasterData","signature","entryPoint"],"type":"object","properties":{"ethereumTxHash":{"title":"Ethereum tx hash","type":"string"},"sender":{"title":"Sender","type":"string"},"userOperationHash":{"title":"User operation hash","type":"string"},"nonce":{"title":"Nonce","type":"integer","minimum":0},"initCode":{"title":"Init code","type":"string","x-nullable":true},"callData":{"title":"Call data","type":"string","x-nullable":true},"callDataGasLimit":{"title":"Call data gas limit","type":"integer","minimum":0},"verificationGasLimit":{"title":"Verification gas limit","type":"integer","minimum":0},"preVerificationGas":{"title":"Pre verification gas","type":"integer","minimum":0},"maxFeePerGas":{"title":"Max fee per gas","type":"integer","minimum":0},"maxPriorityFeePerGas":{"title":"Max priority fee per gas","type":"integer","minimum":0},"paymaster":{"title":"Paymaster","type":"string","x-nullable":true},"paymasterData":{"title":"Paymaster data","type":"string","x-nullable":true},"signature":{"title":"Signature","type":"string"},"entryPoint":{"title":"Entry point","type":"string"}}}}}}}},"description":""}]} />
    <Feedback asPath={"/api-reference#List-Safe-Operations"} label='Did this API route run successfully?' small />
  </Grid>
  <Grid item xs={12} md={5.6}>
    <Path path="/v1/safes/{address}/safe-operations/" method="get" />

    <SampleRequestHeader method="get" pathWithParams="/v1/safes/0xcd2E72aEBe2A203b84f46DEEC948E6465dB51c75/safe-operations/" />

    <CH.Section>
      <CH.Code>
        
```bash 
curl -X GET https://safe-transaction-mainnet.safe.global/api/v1/safes/0xcd2E72aEBe2A203b84f46DEEC948E6465dB51c75/safe-operations/ \
    -H "Accept: application/json" \
    -H "content-type: application/json" \
    
```
      </CH.Code>
    </CH.Section>
    <NetworkNotice />

    #### Sample Response

```json
{
  "count": 0,
  "next": null,
  "previous": null,
  "results": []
}
```
  </Grid>
</Grid>
<Hr style={{ 
  marginTop: '112px',
  marginBottom: '112px'
}} />

### Create Safe Operation

<Grid container justifyContent='space-between'>
  <Grid item xs={12} md={5.6}>

    Create a new 4337 ``SafeOperation`` for a Safe.

    :param request:
:param address:
:param args:
:param kwargs:
:return:

    

    <Parameters parameters={[{"name":"data","in":"body","required":true,"schema":{"refName":"SafeOperation","required":["nonce","initCode","callData","callDataGasLimit","verificationGasLimit","preVerificationGas","maxFeePerGas","maxPriorityFeePerGas","paymasterAndData","signature","entryPoint","validAfter","validUntil","moduleAddress"],"type":"object","properties":{"nonce":{"title":"Nonce","type":"integer","minimum":0},"initCode":{"title":"Init code","type":"string","x-nullable":true},"callData":{"title":"Call data","type":"string","x-nullable":true},"callDataGasLimit":{"title":"Call data gas limit","type":"integer","minimum":0},"verificationGasLimit":{"title":"Verification gas limit","type":"integer","minimum":0},"preVerificationGas":{"title":"Pre verification gas","type":"integer","minimum":0},"maxFeePerGas":{"title":"Max fee per gas","type":"integer","minimum":0},"maxPriorityFeePerGas":{"title":"Max priority fee per gas","type":"integer","minimum":0},"paymasterAndData":{"title":"Paymaster and data","type":"string","x-nullable":true},"signature":{"title":"Signature","type":"string"},"entryPoint":{"title":"Entry point","type":"string"},"validAfter":{"title":"Valid after","type":"string","format":"date-time","x-nullable":true},"validUntil":{"title":"Valid until","type":"string","format":"date-time","x-nullable":true},"moduleAddress":{"title":"Module address","type":"string"}}}}]} />
    <Responses responses={[{"code":"201","schema":{},"description":"Created"}]} />
    <Feedback asPath={"/api-reference#Create-Safe-Operation"} label='Did this API route run successfully?' small />
  </Grid>
  <Grid item xs={12} md={5.6}>
    <Path path="/v1/safes/{address}/safe-operations/" method="post" />

    <SampleRequestHeader method="post" pathWithParams="/v1/safes/0xcd2E72aEBe2A203b84f46DEEC948E6465dB51c75/safe-operations/" />

    <CH.Section>
      <CH.Code>
        
```bash 
curl -X POST https://safe-transaction-mainnet.safe.global/api/v1/safes/0xcd2E72aEBe2A203b84f46DEEC948E6465dB51c75/safe-operations/ \
    -H "Accept: application/json" \
    -H "content-type: application/json" \
    -d '{
  "nonce": "",
  "initCode": "",
  "callData": "",
  "callDataGasLimit": "",
  "verificationGasLimit": "",
  "preVerificationGas": "",
  "maxFeePerGas": "",
  "maxPriorityFeePerGas": "",
  "paymasterAndData": "",
  "signature": "0xae31da115daa589fa3cee016c756d191d4140fc0eb30c1565cdddcad35068300669abda9c56e1c5886d72c599e1af29fc70eedd16be72109aa593699661482121c",
  "entryPoint": "",
  "validAfter": "",
  "validUntil": "",
  "moduleAddress": ""
}'
```
      </CH.Code>
    </CH.Section>
    <NetworkNotice />

    
  </Grid>
</Grid>
<Hr style={{ 
  marginTop: '112px',
  marginBottom: '112px'
}} />

### List Safe Operations

<Grid container justifyContent='space-between'>
  <Grid item xs={12} md={5.6}>

    

    

    

    <Parameters parameters={[{"name":"ordering","in":"query","description":"Which field to use when ordering the results.","required":false,"type":"string"},{"name":"limit","in":"query","description":"Number of results to return per page.","required":false,"type":"integer"},{"name":"offset","in":"query","description":"The initial index from which to return the results.","required":false,"type":"integer"}]} />
    <Responses responses={[{"code":"200","schema":{"required":["count","results"],"type":"object","properties":{"count":{"type":"integer"},"next":{"type":"string","format":"uri","x-nullable":true},"previous":{"type":"string","format":"uri","x-nullable":true},"results":{"type":"array","items":{"refName":"SafeOperationWithUserOperationResponse","required":["created","modified","safeOperationHash","validAfter","validUntil","moduleAddress"],"type":"object","properties":{"created":{"title":"Created","type":"string","format":"date-time"},"modified":{"title":"Modified","type":"string","format":"date-time"},"safeOperationHash":{"title":"Safe operation hash","type":"string"},"validAfter":{"title":"Valid after","type":"string","format":"date-time"},"validUntil":{"title":"Valid until","type":"string","format":"date-time"},"moduleAddress":{"title":"Module address","type":"string"},"confirmations":{"title":"Confirmations","type":"string","readOnly":true},"preparedSignature":{"title":"Prepared signature","type":"string","readOnly":true},"userOperation":{"refName":"UserOperationResponse","required":["ethereumTxHash","sender","userOperationHash","nonce","initCode","callData","callDataGasLimit","verificationGasLimit","preVerificationGas","maxFeePerGas","maxPriorityFeePerGas","paymaster","paymasterData","signature","entryPoint"],"type":"object","properties":{"ethereumTxHash":{"title":"Ethereum tx hash","type":"string"},"sender":{"title":"Sender","type":"string"},"userOperationHash":{"title":"User operation hash","type":"string"},"nonce":{"title":"Nonce","type":"integer","minimum":0},"initCode":{"title":"Init code","type":"string","x-nullable":true},"callData":{"title":"Call data","type":"string","x-nullable":true},"callDataGasLimit":{"title":"Call data gas limit","type":"integer","minimum":0},"verificationGasLimit":{"title":"Verification gas limit","type":"integer","minimum":0},"preVerificationGas":{"title":"Pre verification gas","type":"integer","minimum":0},"maxFeePerGas":{"title":"Max fee per gas","type":"integer","minimum":0},"maxPriorityFeePerGas":{"title":"Max priority fee per gas","type":"integer","minimum":0},"paymaster":{"title":"Paymaster","type":"string","x-nullable":true},"paymasterData":{"title":"Paymaster data","type":"string","x-nullable":true},"signature":{"title":"Signature","type":"string"},"entryPoint":{"title":"Entry point","type":"string"}}}}}}}},"description":""}]} />
    <Feedback asPath={"/api-reference#List-Safe-Operations"} label='Did this API route run successfully?' small />
  </Grid>
  <Grid item xs={12} md={5.6}>
    <Path path="/v1/safes/{address}/safe-operations/" method="get" />

    <SampleRequestHeader method="get" pathWithParams="/v1/safes/0xcd2E72aEBe2A203b84f46DEEC948E6465dB51c75/safe-operations/" />

    <CH.Section>
      <CH.Code>
        
```bash 
curl -X GET https://safe-transaction-mainnet.safe.global/api/v1/safes/0xcd2E72aEBe2A203b84f46DEEC948E6465dB51c75/safe-operations/ \
    -H "Accept: application/json" \
    -H "content-type: application/json" \
    
```
      </CH.Code>
    </CH.Section>
    <NetworkNotice />

    #### Sample Response

```json
{
  "count": 0,
  "next": null,
  "previous": null,
  "results": []
}
```
  </Grid>
</Grid>
<Hr style={{ 
  marginTop: '112px',
  marginBottom: '112px'
}} />

### Create Safe Operation

<Grid container justifyContent='space-between'>
  <Grid item xs={12} md={5.6}>

    Create a new 4337 ``SafeOperation`` for a Safe.

    :param request:
:param address:
:param args:
:param kwargs:
:return:

    

    <Parameters parameters={[{"name":"data","in":"body","required":true,"schema":{"refName":"SafeOperation","required":["nonce","initCode","callData","callDataGasLimit","verificationGasLimit","preVerificationGas","maxFeePerGas","maxPriorityFeePerGas","paymasterAndData","signature","entryPoint","validAfter","validUntil","moduleAddress"],"type":"object","properties":{"nonce":{"title":"Nonce","type":"integer","minimum":0},"initCode":{"title":"Init code","type":"string","x-nullable":true},"callData":{"title":"Call data","type":"string","x-nullable":true},"callDataGasLimit":{"title":"Call data gas limit","type":"integer","minimum":0},"verificationGasLimit":{"title":"Verification gas limit","type":"integer","minimum":0},"preVerificationGas":{"title":"Pre verification gas","type":"integer","minimum":0},"maxFeePerGas":{"title":"Max fee per gas","type":"integer","minimum":0},"maxPriorityFeePerGas":{"title":"Max priority fee per gas","type":"integer","minimum":0},"paymasterAndData":{"title":"Paymaster and data","type":"string","x-nullable":true},"signature":{"title":"Signature","type":"string"},"entryPoint":{"title":"Entry point","type":"string"},"validAfter":{"title":"Valid after","type":"string","format":"date-time","x-nullable":true},"validUntil":{"title":"Valid until","type":"string","format":"date-time","x-nullable":true},"moduleAddress":{"title":"Module address","type":"string"}}}}]} />
    <Responses responses={[{"code":"201","schema":{},"description":"Created"}]} />
    <Feedback asPath={"/api-reference#Create-Safe-Operation"} label='Did this API route run successfully?' small />
  </Grid>
  <Grid item xs={12} md={5.6}>
    <Path path="/v1/safes/{address}/safe-operations/" method="post" />

    <SampleRequestHeader method="post" pathWithParams="/v1/safes/0xcd2E72aEBe2A203b84f46DEEC948E6465dB51c75/safe-operations/" />

    <CH.Section>
      <CH.Code>
        
```bash 
curl -X POST https://safe-transaction-mainnet.safe.global/api/v1/safes/0xcd2E72aEBe2A203b84f46DEEC948E6465dB51c75/safe-operations/ \
    -H "Accept: application/json" \
    -H "content-type: application/json" \
    -d '{
  "nonce": "",
  "initCode": "",
  "callData": "",
  "callDataGasLimit": "",
  "verificationGasLimit": "",
  "preVerificationGas": "",
  "maxFeePerGas": "",
  "maxPriorityFeePerGas": "",
  "paymasterAndData": "",
  "signature": "0xae31da115daa589fa3cee016c756d191d4140fc0eb30c1565cdddcad35068300669abda9c56e1c5886d72c599e1af29fc70eedd16be72109aa593699661482121c",
  "entryPoint": "",
  "validAfter": "",
  "validUntil": "",
  "moduleAddress": ""
}'
```
      </CH.Code>
    </CH.Section>
    <NetworkNotice />

    
  </Grid>
</Grid>
<Hr style={{ 
  marginTop: '112px',
  marginBottom: '112px'
}} />

### List User Operations

<Grid container justifyContent='space-between'>
  <Grid item xs={12} md={5.6}>

    

    

    

    <Parameters parameters={[{"name":"ordering","in":"query","description":"Which field to use when ordering the results.","required":false,"type":"string"},{"name":"limit","in":"query","description":"Number of results to return per page.","required":false,"type":"integer"},{"name":"offset","in":"query","description":"The initial index from which to return the results.","required":false,"type":"integer"}]} />
    <Responses responses={[{"code":"200","schema":{"required":["count","results"],"type":"object","properties":{"count":{"type":"integer"},"next":{"type":"string","format":"uri","x-nullable":true},"previous":{"type":"string","format":"uri","x-nullable":true},"results":{"type":"array","items":{"refName":"UserOperationWithSafeOperationResponse","required":["ethereumTxHash","sender","userOperationHash","nonce","initCode","callData","callDataGasLimit","verificationGasLimit","preVerificationGas","maxFeePerGas","maxPriorityFeePerGas","paymaster","paymasterData","signature","entryPoint"],"type":"object","properties":{"ethereumTxHash":{"title":"Ethereum tx hash","type":"string"},"sender":{"title":"Sender","type":"string"},"userOperationHash":{"title":"User operation hash","type":"string"},"nonce":{"title":"Nonce","type":"integer","minimum":0},"initCode":{"title":"Init code","type":"string","x-nullable":true},"callData":{"title":"Call data","type":"string","x-nullable":true},"callDataGasLimit":{"title":"Call data gas limit","type":"integer","minimum":0},"verificationGasLimit":{"title":"Verification gas limit","type":"integer","minimum":0},"preVerificationGas":{"title":"Pre verification gas","type":"integer","minimum":0},"maxFeePerGas":{"title":"Max fee per gas","type":"integer","minimum":0},"maxPriorityFeePerGas":{"title":"Max priority fee per gas","type":"integer","minimum":0},"paymaster":{"title":"Paymaster","type":"string","x-nullable":true},"paymasterData":{"title":"Paymaster data","type":"string","x-nullable":true},"signature":{"title":"Signature","type":"string"},"entryPoint":{"title":"Entry point","type":"string"},"safeOperation":{"refName":"SafeOperationResponse","required":["created","modified","safeOperationHash","validAfter","validUntil","moduleAddress"],"type":"object","properties":{"created":{"title":"Created","type":"string","format":"date-time"},"modified":{"title":"Modified","type":"string","format":"date-time"},"safeOperationHash":{"title":"Safe operation hash","type":"string"},"validAfter":{"title":"Valid after","type":"string","format":"date-time"},"validUntil":{"title":"Valid until","type":"string","format":"date-time"},"moduleAddress":{"title":"Module address","type":"string"},"confirmations":{"title":"Confirmations","type":"string","readOnly":true},"preparedSignature":{"title":"Prepared signature","type":"string","readOnly":true}},"x-nullable":true}},"x-nullable":true}}}},"description":""}]} />
    <Feedback asPath={"/api-reference#List-User-Operations"} label='Did this API route run successfully?' small />
  </Grid>
  <Grid item xs={12} md={5.6}>
    <Path path="/v1/safes/{address}/user-operations/" method="get" />

    <SampleRequestHeader method="get" pathWithParams="/v1/safes/0xcd2E72aEBe2A203b84f46DEEC948E6465dB51c75/user-operations/" />

    <CH.Section>
      <CH.Code>
        
```bash 
curl -X GET https://safe-transaction-mainnet.safe.global/api/v1/safes/0xcd2E72aEBe2A203b84f46DEEC948E6465dB51c75/user-operations/ \
    -H "Accept: application/json" \
    -H "content-type: application/json" \
    
```
      </CH.Code>
    </CH.Section>
    <NetworkNotice />

    #### Sample Response

```json
{
  "count": 0,
  "next": null,
  "previous": null,
  "results": []
}
```
  </Grid>
</Grid>
<Hr style={{ 
  marginTop: '112px',
  marginBottom: '112px'
}} />

### Get User Operation

<Grid container justifyContent='space-between'>
  <Grid item xs={12} md={5.6}>

    

    

    

    <Parameters parameters={[]} />
    <Responses responses={[{"code":"200","schema":{"refName":"UserOperationWithSafeOperationResponse","required":["ethereumTxHash","sender","userOperationHash","nonce","initCode","callData","callDataGasLimit","verificationGasLimit","preVerificationGas","maxFeePerGas","maxPriorityFeePerGas","paymaster","paymasterData","signature","entryPoint"],"type":"object","properties":{"ethereumTxHash":{"title":"Ethereum tx hash","type":"string"},"sender":{"title":"Sender","type":"string"},"userOperationHash":{"title":"User operation hash","type":"string"},"nonce":{"title":"Nonce","type":"integer","minimum":0},"initCode":{"title":"Init code","type":"string","x-nullable":true},"callData":{"title":"Call data","type":"string","x-nullable":true},"callDataGasLimit":{"title":"Call data gas limit","type":"integer","minimum":0},"verificationGasLimit":{"title":"Verification gas limit","type":"integer","minimum":0},"preVerificationGas":{"title":"Pre verification gas","type":"integer","minimum":0},"maxFeePerGas":{"title":"Max fee per gas","type":"integer","minimum":0},"maxPriorityFeePerGas":{"title":"Max priority fee per gas","type":"integer","minimum":0},"paymaster":{"title":"Paymaster","type":"string","x-nullable":true},"paymasterData":{"title":"Paymaster data","type":"string","x-nullable":true},"signature":{"title":"Signature","type":"string"},"entryPoint":{"title":"Entry point","type":"string"},"safeOperation":{"refName":"SafeOperationResponse","required":["created","modified","safeOperationHash","validAfter","validUntil","moduleAddress"],"type":"object","properties":{"created":{"title":"Created","type":"string","format":"date-time"},"modified":{"title":"Modified","type":"string","format":"date-time"},"safeOperationHash":{"title":"Safe operation hash","type":"string"},"validAfter":{"title":"Valid after","type":"string","format":"date-time"},"validUntil":{"title":"Valid until","type":"string","format":"date-time"},"moduleAddress":{"title":"Module address","type":"string"},"confirmations":{"title":"Confirmations","type":"string","readOnly":true},"preparedSignature":{"title":"Prepared signature","type":"string","readOnly":true}},"x-nullable":true}},"x-nullable":true},"description":""}]} />
    <Feedback asPath={"/api-reference#Get-User-Operation"} label='Did this API route run successfully?' small />
  </Grid>
  <Grid item xs={12} md={5.6}>
    <Path path="/v1/user-operations/{user_operation_hash}/" method="get" />

    <SampleRequestHeader method="get" pathWithParams="/v1/user-operations//" />

    <CH.Section>
      <CH.Code>
        
```bash 
curl -X GET https://safe-transaction-mainnet.safe.global/api/v1/user-operations// \
    -H "Accept: application/json" \
    -H "content-type: application/json" \
    
```
      </CH.Code>
    </CH.Section>
    <NetworkNotice />

    
  </Grid>
</Grid>
<Hr style={{ 
  marginTop: '112px',
  marginBottom: '112px'
}} />

<Grid my={8} />

## Safes

<Grid my={6} />

### Get Safe Status

<Grid container justifyContent='space-between'>
  <Grid item xs={12} md={5.6}>

    

    Get status of the safe

    

    <Parameters parameters={[]} />
    <Responses responses={[{"code":"200","schema":{"refName":"SafeInfoResponse","required":["address","nonce","threshold","owners","masterCopy","modules","fallbackHandler","guard","version"],"type":"object","properties":{"address":{"title":"Address","type":"string"},"nonce":{"title":"Nonce","type":"integer"},"threshold":{"title":"Threshold","type":"integer"},"owners":{"type":"array","items":{"type":"string"}},"masterCopy":{"title":"Master copy","type":"string"},"modules":{"type":"array","items":{"type":"string"}},"fallbackHandler":{"title":"Fallback handler","type":"string"},"guard":{"title":"Guard","type":"string"},"version":{"title":"Version","type":"string","minLength":1,"x-nullable":true}}},"description":""},{"code":"404","schema":{},"description":"Safe not found"},{"code":"422","schema":{},"description":"code = 1: Checksum address validation failed\ncode = 50: Cannot get Safe info"}]} />
    <Feedback asPath={"/api-reference#Get-Safe-Status"} label='Did this API route run successfully?' small />
  </Grid>
  <Grid item xs={12} md={5.6}>
    <Path path="/v1/safes/{address}/" method="get" />

    <SampleRequestHeader method="get" pathWithParams="/v1/safes/0xcd2E72aEBe2A203b84f46DEEC948E6465dB51c75/" />

    <CH.Section>
      <CH.Code>
        
```bash 
curl -X GET https://safe-transaction-mainnet.safe.global/api/v1/safes/0xcd2E72aEBe2A203b84f46DEEC948E6465dB51c75/ \
    -H "Accept: application/json" \
    -H "content-type: application/json" \
    
```
      </CH.Code>
    </CH.Section>
    <NetworkNotice />

    #### Sample Response

```json
{
  "address": "0xcd2E72aEBe2A203b84f46DEEC948E6465dB51c75",
  "nonce": 50,
  "threshold": 1,
  "owners": [
    "0x56519083C3cfeAE833B93a93c843C993bE1D74EA",
    "0xA1b02d8c67b0FDCF4E379855868DeB470E169cfB"
  ],
  "masterCopy": "0xd9Db270c1B5E3Bd161E8c8503c55cEABeE709552",
  "modules": [],
  "fallbackHandler": "0x0000000000000000000000000000000000000000",
  "guard": "0x0000000000000000000000000000000000000000",
  "version": "1.3.0"
}
```
  </Grid>
</Grid>
<Hr style={{ 
  marginTop: '112px',
  marginBottom: '112px'
}} />

### List a Safe's Balances (Deprecated)

<Grid container justifyContent='space-between'>
  <Grid item xs={12} md={5.6}>

    

    Get balance for Ether and ERC20 tokens

    

    <Parameters parameters={[{"name":"trusted","in":"query","description":"If `True` just trusted tokens will be returned","type":"boolean","default":false},{"name":"exclude_spam","in":"query","description":"If `True` spam tokens will not be returned","type":"boolean","default":false}]} />
    <Responses responses={[{"code":"200","schema":{"type":"array","items":{"refName":"SafeBalanceResponse","required":["tokenAddress","token","balance"],"type":"object","properties":{"tokenAddress":{"title":"Token address","type":"string","minLength":1},"token":{"refName":"Erc20Info","required":["name","symbol","decimals","logoUri"],"type":"object","properties":{"name":{"title":"Name","type":"string","minLength":1},"symbol":{"title":"Symbol","type":"string","minLength":1},"decimals":{"title":"Decimals","type":"integer"},"logoUri":{"title":"Logo uri","type":"string","minLength":1}}},"balance":{"title":"Balance","type":"string","minLength":1}}}},"description":""},{"code":"404","schema":{},"description":"Safe not found"},{"code":"422","schema":{},"description":"Safe address checksum not valid"}]} />
    <Feedback asPath={"/api-reference#List-a-Safe's-Balances-(Deprecated)"} label='Did this API route run successfully?' small />
  </Grid>
  <Grid item xs={12} md={5.6}>
    <Path path="/v1/safes/{address}/balances/" method="get" />

    <SampleRequestHeader method="get" pathWithParams="/v1/safes/0xcd2E72aEBe2A203b84f46DEEC948E6465dB51c75/balances/" />

    <CH.Section>
      <CH.Code>
        
```bash 
curl -X GET https://safe-transaction-mainnet.safe.global/api/v1/safes/0xcd2E72aEBe2A203b84f46DEEC948E6465dB51c75/balances/ \
    -H "Accept: application/json" \
    -H "content-type: application/json" \
    
```
      </CH.Code>
    </CH.Section>
    <NetworkNotice />

    #### Sample Response

```json
[
  {
    "tokenAddress": null,
    "token": null,
    "balance": "100000000000000"
  },
  {
    "tokenAddress": "0x111111111117dC0aa78b770fA6A738034120C302",
    "token": {
      "name": "1INCH Token",
      "symbol": "1INCH",
      "decimals": 18,
      "logoUri": "https://safe-transaction-assets.safe.global/tokens/logos/0x111111111117dC0aa78b770fA6A738034120C302.png"
    },
    "balance": "1000000000000000000"
  }
]
```
  </Grid>
</Grid>
<Hr style={{ 
  marginTop: '112px',
  marginBottom: '112px'
}} />

### Get Safe Creation Status

<Grid container justifyContent='space-between'>
  <Grid item xs={12} md={5.6}>

    

    Get status of the safe

    

    <Parameters parameters={[]} />
    <Responses responses={[{"code":"200","schema":{"refName":"SafeCreationInfoResponse","required":["created","creator","transactionHash","factoryAddress","masterCopy","setupData","userOperation"],"type":"object","properties":{"created":{"title":"Created","type":"string","format":"date-time"},"creator":{"title":"Creator","type":"string"},"transactionHash":{"title":"Transaction hash","type":"string"},"factoryAddress":{"title":"Factory address","type":"string"},"masterCopy":{"title":"Master copy","type":"string","x-nullable":true},"setupData":{"title":"Setup data","type":"string","x-nullable":true},"dataDecoded":{"title":"Data decoded","type":"string","readOnly":true},"userOperation":{"refName":"UserOperationWithSafeOperationResponse","required":["ethereumTxHash","sender","userOperationHash","nonce","initCode","callData","callDataGasLimit","verificationGasLimit","preVerificationGas","maxFeePerGas","maxPriorityFeePerGas","paymaster","paymasterData","signature","entryPoint"],"type":"object","properties":{"ethereumTxHash":{"title":"Ethereum tx hash","type":"string"},"sender":{"title":"Sender","type":"string"},"userOperationHash":{"title":"User operation hash","type":"string"},"nonce":{"title":"Nonce","type":"integer","minimum":0},"initCode":{"title":"Init code","type":"string","x-nullable":true},"callData":{"title":"Call data","type":"string","x-nullable":true},"callDataGasLimit":{"title":"Call data gas limit","type":"integer","minimum":0},"verificationGasLimit":{"title":"Verification gas limit","type":"integer","minimum":0},"preVerificationGas":{"title":"Pre verification gas","type":"integer","minimum":0},"maxFeePerGas":{"title":"Max fee per gas","type":"integer","minimum":0},"maxPriorityFeePerGas":{"title":"Max priority fee per gas","type":"integer","minimum":0},"paymaster":{"title":"Paymaster","type":"string","x-nullable":true},"paymasterData":{"title":"Paymaster data","type":"string","x-nullable":true},"signature":{"title":"Signature","type":"string"},"entryPoint":{"title":"Entry point","type":"string"},"safeOperation":{"refName":"SafeOperationResponse","required":["created","modified","safeOperationHash","validAfter","validUntil","moduleAddress"],"type":"object","properties":{"created":{"title":"Created","type":"string","format":"date-time"},"modified":{"title":"Modified","type":"string","format":"date-time"},"safeOperationHash":{"title":"Safe operation hash","type":"string"},"validAfter":{"title":"Valid after","type":"string","format":"date-time"},"validUntil":{"title":"Valid until","type":"string","format":"date-time"},"moduleAddress":{"title":"Module address","type":"string"},"confirmations":{"title":"Confirmations","type":"string","readOnly":true},"preparedSignature":{"title":"Prepared signature","type":"string","readOnly":true}},"x-nullable":true}},"x-nullable":true}}},"description":""},{"code":"404","schema":{},"description":"Safe creation not found"},{"code":"422","schema":{},"description":"Owner address checksum not valid"},{"code":"503","schema":{},"description":"Problem connecting to Ethereum network"}]} />
    <Feedback asPath={"/api-reference#Get-Safe-Creation-Status"} label='Did this API route run successfully?' small />
  </Grid>
  <Grid item xs={12} md={5.6}>
    <Path path="/v1/safes/{address}/creation/" method="get" />

    <SampleRequestHeader method="get" pathWithParams="/v1/safes/0xcd2E72aEBe2A203b84f46DEEC948E6465dB51c75/creation/" />

    <CH.Section>
      <CH.Code>
        
```bash 
curl -X GET https://safe-transaction-mainnet.safe.global/api/v1/safes/0xcd2E72aEBe2A203b84f46DEEC948E6465dB51c75/creation/ \
    -H "Accept: application/json" \
    -H "content-type: application/json" \
    
```
      </CH.Code>
    </CH.Section>
    <NetworkNotice />

    #### Sample Response

```json
{
  "created": "2019-11-27T15:01:45Z",
  "creator": "0xA1b02d8c67b0FDCF4E379855868DeB470E169cfB",
  "transactionHash": "0x9c65d416867d9e13732fee8b85dd44c4d774b9bad31b3cd44e78eeefc33ce97f",
  "factoryAddress": "0x12302fE9c02ff50939BaAaaf415fc226C078613C",
  "masterCopy": "0xb6029EA3B2c51D09a50B53CA8012FeEB05bDa35A",
  "setupData": "0xa97ab18a00000000000000000000000000000000000000000000000000000000000000e00000000000000000000000000000000000000000000000000000000000000001000000000000000000000000000000000000000000000000000000000000000000000000000000000000000000000000000000000000000000000000000001200000000000000000000000000000000000000000000000000000000000000000000000000000000000000000000000000000000000000000000000000000000000000000000000000000000000000000000000000000000000000000000000000000000000000000000000000000000000000000000000000000000000000001000000000000000000000000a1b02d8c67b0fdcf4e379855868deb470e169cfb0000000000000000000000000000000000000000000000000000000000000000",
  "dataDecoded": {
    "method": "setup",
    "parameters": [
      {
        "name": "_owners",
        "type": "address[]",
        "value": [
          "0xA1b02d8c67b0FDCF4E379855868DeB470E169cfB"
        ]
      },
      {
        "name": "_threshold",
        "type": "uint256",
        "value": "1"
      },
      {
        "name": "to",
        "type": "address",
        "value": "0x0000000000000000000000000000000000000000"
      },
      {
        "name": "data",
        "type": "bytes",
        "value": "0x"
      },
      {
        "name": "paymentToken",
        "type": "address",
        "value": "0x0000000000000000000000000000000000000000"
      },
      {
        "name": "payment",
        "type": "uint256",
        "value": "0"
      },
      {
        "name": "paymentReceiver",
        "type": "address",
        "value": "0x0000000000000000000000000000000000000000"
      }
    ]
  },
  "userOperation": null
}
```
  </Grid>
</Grid>
<Hr style={{ 
  marginTop: '112px',
  marginBottom: '112px'
}} />

### List Collectibles

<Grid container justifyContent='space-between'>
  <Grid item xs={12} md={5.6}>

    

    Get collectibles (ERC721 tokens) and information about them

    

    <Parameters parameters={[{"name":"limit","in":"query","description":"Number of results to return per page.","required":false,"type":"integer"},{"name":"offset","in":"query","description":"The initial index from which to return the results.","required":false,"type":"integer"},{"name":"trusted","in":"query","description":"If `True` just trusted tokens will be returned","type":"boolean","default":false},{"name":"exclude_spam","in":"query","description":"If `True` spam tokens will not be returned","type":"boolean","default":false}]} />
    <Responses responses={[{"code":"200","schema":{"type":"array","items":{"refName":"SafeCollectibleResponse","required":["address","tokenName","tokenSymbol","logoUri","id","uri","name","description","imageUri","metadata"],"type":"object","properties":{"address":{"title":"Address","type":"string","minLength":1},"tokenName":{"title":"Token name","type":"string","minLength":1},"tokenSymbol":{"title":"Token symbol","type":"string","minLength":1},"logoUri":{"title":"Logo uri","type":"string","minLength":1},"id":{"title":"Id","type":"string","minLength":1},"uri":{"title":"Uri","type":"string","minLength":1},"name":{"title":"Name","type":"string","minLength":1},"description":{"title":"Description","type":"string","minLength":1},"imageUri":{"title":"Image uri","type":"string","minLength":1},"metadata":{"title":"Metadata","type":"object","additionalProperties":{"type":"string","x-nullable":true}}}}},"description":""},{"code":"404","schema":{},"description":"Safe not found"},{"code":"422","schema":{},"description":"Safe address checksum not valid"}]} />
    <Feedback asPath={"/api-reference#List-Collectibles"} label='Did this API route run successfully?' small />
  </Grid>
  <Grid item xs={12} md={5.6}>
    <Path path="/v2/safes/{address}/collectibles/" method="get" />

    <SampleRequestHeader method="get" pathWithParams="/v2/safes/0xcd2E72aEBe2A203b84f46DEEC948E6465dB51c75/collectibles/" />

    <CH.Section>
      <CH.Code>
        
```bash 
curl -X GET https://safe-transaction-mainnet.safe.global/api/v2/safes/0xcd2E72aEBe2A203b84f46DEEC948E6465dB51c75/collectibles/ \
    -H "Accept: application/json" \
    -H "content-type: application/json" \
    
```
      </CH.Code>
    </CH.Section>
    <NetworkNotice />

    #### Sample Response

```json
{
  "count": 1,
  "next": null,
  "previous": null,
  "results": [
    {
      "address": "0x18F36D3222324DdAC1eFD0a524aabFb9D77D8041",
      "tokenName": "Glarbs",
      "tokenSymbol": "GLARB",
      "logoUri": "https://safe-transaction-assets.safe.global/tokens/logos/0x18F36D3222324DdAC1eFD0a524aabFb9D77D8041.png",
      "id": "2098",
      "uri": "https://tokenofinfection.com/metadata/human/2098",
      "name": null,
      "description": null,
      "imageUri": null,
      "metadata": {}
    }
  ]
}
```
  </Grid>
</Grid>
<Hr style={{ 
  marginTop: '112px',
  marginBottom: '112px'
}} />

<Grid my={8} />

## Tokens

<Grid my={6} />

### List Tokens

<Grid container justifyContent='space-between'>
  <Grid item xs={12} md={5.6}>

    

    

    

    <Parameters parameters={[{"name":"name","in":"query","description":"name","required":false,"type":"string"},{"name":"address","in":"query","description":"address","required":false,"type":"string"},{"name":"symbol","in":"query","description":"symbol","required":false,"type":"string"},{"name":"decimals__lt","in":"query","description":"decimals__lt","required":false,"type":"string"},{"name":"decimals__gt","in":"query","description":"decimals__gt","required":false,"type":"string"},{"name":"decimals","in":"query","description":"decimals","required":false,"type":"string"},{"name":"search","in":"query","description":"A search term.","required":false,"type":"string"},{"name":"ordering","in":"query","description":"Which field to use when ordering the results.","required":false,"type":"string"},{"name":"limit","in":"query","description":"Number of results to return per page.","required":false,"type":"integer"},{"name":"offset","in":"query","description":"The initial index from which to return the results.","required":false,"type":"integer"}]} />
    <Responses responses={[{"code":"200","schema":{"required":["count","results"],"type":"object","properties":{"count":{"type":"integer"},"next":{"type":"string","format":"uri","x-nullable":true},"previous":{"type":"string","format":"uri","x-nullable":true},"results":{"type":"array","items":{"refName":"TokenInfoResponse","required":["address","name","symbol","decimals","trusted"],"type":"object","properties":{"type":{"title":"Type","type":"string","readOnly":true},"address":{"title":"Address","type":"string"},"name":{"title":"Name","type":"string","minLength":1},"symbol":{"title":"Symbol","type":"string","minLength":1},"decimals":{"title":"Decimals","type":"integer"},"logoUri":{"title":"Logo uri","type":"string","readOnly":true},"trusted":{"title":"Trusted","type":"boolean"}}}}}},"description":""}]} />
    <Feedback asPath={"/api-reference#List-Tokens"} label='Did this API route run successfully?' small />
  </Grid>
  <Grid item xs={12} md={5.6}>
    <Path path="/v1/tokens/" method="get" />

    <SampleRequestHeader method="get" pathWithParams="/v1/tokens/" />

    <CH.Section>
      <CH.Code>
        
```bash 
curl -X GET https://safe-transaction-mainnet.safe.global/api/v1/tokens/ \
    -H "Accept: application/json" \
    -H "content-type: application/json" \
    
```
      </CH.Code>
    </CH.Section>
    <NetworkNotice />

    #### Sample Response

```json
{
  "count": 40276,
  "next": "https://safe-transaction-mainnet.safe.global/api/v1/tokens/?limit=2&offset=2",
  "previous": null,
  "results": [
    {
      "type": "ERC20",
      "address": "0x56EBDaE96d179549f279ea0cFEa3b3432B8Cd2bC",
      "name": "",
      "symbol": "",
      "decimals": 18,
      "logoUri": "https://safe-transaction-assets.safe.global/tokens/logos/0x56EBDaE96d179549f279ea0cFEa3b3432B8Cd2bC.png",
      "trusted": false
    },
    {
      "type": "ERC20",
      "address": "0x85A7a676D610A95865E842d2754b1fd335E55767",
      "name": "",
      "symbol": "",
      "decimals": 7,
      "logoUri": "https://safe-transaction-assets.safe.global/tokens/logos/0x85A7a676D610A95865E842d2754b1fd335E55767.png",
      "trusted": false
    }
  ]
}
```
  </Grid>
</Grid>
<Hr style={{ 
  marginTop: '112px',
  marginBottom: '112px'
}} />

### Get a Specific Token's Information

<Grid container justifyContent='space-between'>
  <Grid item xs={12} md={5.6}>

    

    

    

    <Parameters parameters={[]} />
    <Responses responses={[{"code":"200","schema":{"refName":"TokenInfoResponse","required":["address","name","symbol","decimals","trusted"],"type":"object","properties":{"type":{"title":"Type","type":"string","readOnly":true},"address":{"title":"Address","type":"string"},"name":{"title":"Name","type":"string","minLength":1},"symbol":{"title":"Symbol","type":"string","minLength":1},"decimals":{"title":"Decimals","type":"integer"},"logoUri":{"title":"Logo uri","type":"string","readOnly":true},"trusted":{"title":"Trusted","type":"boolean"}}},"description":""}]} />
    <Feedback asPath={"/api-reference#Get-a-Specific-Token's-Information"} label='Did this API route run successfully?' small />
  </Grid>
  <Grid item xs={12} md={5.6}>
    <Path path="/v1/tokens/{address}/" method="get" />

    <SampleRequestHeader method="get" pathWithParams="/v1/tokens/0xcd2E72aEBe2A203b84f46DEEC948E6465dB51c75/" />

    <CH.Section>
      <CH.Code>
        
```bash 
curl -X GET https://safe-transaction-mainnet.safe.global/api/v1/tokens/0xcd2E72aEBe2A203b84f46DEEC948E6465dB51c75/ \
    -H "Accept: application/json" \
    -H "content-type: application/json" \
    
```
      </CH.Code>
    </CH.Section>
    <NetworkNotice />

    
  </Grid>
</Grid>
<Hr style={{ 
  marginTop: '112px',
  marginBottom: '112px'
}} />

<Grid my={8} />

## Transfer

<Grid my={6} />

### Get Transfer

<Grid container justifyContent='space-between'>
  <Grid item xs={12} md={5.6}>

    

    :return: transfer filtered by transfer_id

    

    <Parameters parameters={[]} />
    <Responses responses={[{"code":"200","schema":{"refName":"TransferWithTokenInfoResponse","required":["executionDate","blockNumber","transactionHash","to","value","tokenId","tokenInfo","from"],"type":"object","properties":{"type":{"title":"Type","type":"string","readOnly":true},"executionDate":{"title":"Execution date","type":"string","format":"date-time"},"blockNumber":{"title":"Block number","type":"integer"},"transactionHash":{"title":"Transaction hash","type":"string"},"to":{"title":"To","type":"string"},"value":{"title":"Value","type":"string","minLength":1,"x-nullable":true},"tokenId":{"title":"Token id","type":"string","minLength":1,"x-nullable":true},"tokenAddress":{"title":"Token address","type":"string","x-nullable":true},"transferId":{"title":"Transfer id","description":"Internally calculated parameter to uniquely identify a transfer \nToken transfers are calculated as `transferId = e+tx_hash+log_index` \nEther transfers are calculated as `transferId = i+tx_hash+trace_address`","type":"string","readOnly":true},"tokenInfo":{"refName":"TokenInfoResponse","required":["address","name","symbol","decimals","trusted"],"type":"object","properties":{"type":{"title":"Type","type":"string","readOnly":true},"address":{"title":"Address","type":"string"},"name":{"title":"Name","type":"string","minLength":1},"symbol":{"title":"Symbol","type":"string","minLength":1},"decimals":{"title":"Decimals","type":"integer"},"logoUri":{"title":"Logo uri","type":"string","readOnly":true},"trusted":{"title":"Trusted","type":"boolean"}}},"from":{"title":"From","type":"string"}}},"description":""},{"code":"400","schema":{},"description":"Invalid transferId"},{"code":"404","schema":{},"description":"Transfer does not exist"}]} />
    <Feedback asPath={"/api-reference#Get-Transfer"} label='Did this API route run successfully?' small />
  </Grid>
  <Grid item xs={12} md={5.6}>
    <Path path="/v1/transfer/{transfer_id}" method="get" />

    <SampleRequestHeader method="get" pathWithParams="/v1/transfer/3b3b57b3" />

    <CH.Section>
      <CH.Code>
        
```bash 
curl -X GET https://safe-transaction-mainnet.safe.global/api/v1/transfer/3b3b57b3 \
    -H "Accept: application/json" \
    -H "content-type: application/json" \
    
```
      </CH.Code>
    </CH.Section>
    <NetworkNotice />

    
  </Grid>
</Grid>
<Hr style={{ 
  marginTop: '112px',
  marginBottom: '112px'
}} />

